S016000070696E6720706F6E6720746573742E73726563AC
S11300000C9438000C9442000C9442000C9442006E
S11300100C9442000C9442000C9442000C94420054
S11300200C9442000C9442000C9442000C94420044
S11300300C9442000C9442000C9442000C94420034
S11300400C9442000C9442000C9442000C94420024
S11300500C9442000C9442000C9442000C94420014
S11300600C9442000C9442000C9442000C94420004
S113007011241FBECFEFD4E0DEBFCDBF0E944F00DE
S11300800C9462000C9400009CBF80B988E181B993
S11300908EE88CBF0895159BFECF83B90895D09A3E
S11300A08FE190E00E944400C1E086E40E944B008E
S11300B08BB38C278BBB8FE493EC0197F1F700C0D3
S10B00C00000F3CFF894FFCF18
S9030000FC
