S016000070696E6720706F6E6720746573742E73726563AC
S11300000C94A2020C94BF020C94BF020C94BF0285
S11300100C94BF020C94BF020C94BF020C94BF0258
S11300200C94BF020C94BF020C94BF020C94BF0248
S11300300C94BF020C94BF020C94BF020C94BF0238
S11300400C94BF020C94BF020C94BF020C94BF0228
S11300500C94BF020C94BF020C94BF020C94BF0218
S11300600C94BF020C94BF020C94BF020C94BF0208
S1130070000000000000000000065F5F06000000B2
S11300800007070007070000147F7F147F7F140018
S1130090242E6B6B3A120000466630180C66620020
S11300A0307A4F5D377A48000407030000000000EF
S11300B0001C3E63410000000041633E1C00000040
S11300C0082A3E1C1C3E2A0808083E3E0808000078
S11300D000A0E0600000000008080808080800000C
S11300E000006060000000006030180C060301008E
S11300F03E7F594D7F3E000042427F7F40400000DA
S1130100627359496F660000226349497F360000D3
S1130110181C16137F7F1000276745457D390000A2
S11301203C7E4B4979300000036371190F070000CE
S1130130367F49497F360000064F49693F1E00005B
S113014000006C6C0000000000A0EC6C00000000DB
S1130150081C366341000000141414141414000025
S1130160004163361C080000020351590F060000C9
S11301703E7F415D5D1F1E007C7E13137E7C00006C
S1130180417F7F49497F36001C3E63414163220021
S1130190417F7F41637F1C00417F7F495D41630054
S11301A0417F7F491D0103001C3E6341517372006E
S11301B07F7F08087F7F000000417F7F41000000AF
S11301C0307040417F3F0100417F7F081C7763000E
S11301D0417F7F41406070007F7F060C067F7F0077
S11301E07F7F060C187F7F001C3E6341633E1C002A
S11301F0417F7F49090F06001E3F21717F5E000089
S1130200417F7F19396F460026674D597B320000C4
S113021003417F7F410300007F7F40407F7F0000D8
S11302201F3F60603F1F00007F7F3018307F7F00DA
S113023063771C081C776300074F78784F0700002A
S11302406773594D47637100007F7F41410000008F
S11302500103060C183060000041417F7F0000005C
S1130260080C0603060C0800808080808080808053
S11302700000030704000000207454543C7840003C
S1130280413F7F44447C3800387C44446C2800005F
S1130290307848493F7F4000387C54545C18000053
S11302A0487E7F490302000098BCA4A4F87C0400A3
S11302B0417F7F08047C780000447D7D400000007D
S11302C040C484FD7D000000417F7F10386C4400F1
S11302D000417F7F400000007C7C0C180C7C78007F
S11302E07C7C04047C780000387C44447C38000026
S11302F084FCF8A4243C1800183C24A4F8FC8400D2
S1130300447C78441C180000485C54547424000055
S113031000043E7F442400003C7C40403C7C400080
S11303201C3C60603C1C00003C7C6030607C3C00F9
S1130330446C3810386C44009CBCA0A0FC7C0000C9
S11303404C64745C4C64000008083E774141000032
S113035000000077770000004141773E0808000064
S113036002030103020301003030FC78303078FCD2
S113037030302038FE38200838FE38087CD6FEC6D7
S11303807C000000000000000000000000000000ED
S11303900000000000000000000000000000000059
S11303A00000000000000000000000000000000049
S11303B00000000000000000000000000000000039
S11303C00000000000000000000000000000000029
S11303D00000000000000000000000000000000019
S11303E00000000000000000000000000000000009
S11303F000000000000000000000000000000000F9
S113040000000000000000000000000000000000E8
S113041000000000000000000000000000000000D8
S113042000000000000000000000000000000000C8
S113043000000000000000000000000000000000B8
S113044000000000000000000000000000000000A8
S11304500000000000000000000000000000000098
S11304600000000000000000000000000000000088
S11304700000000000000000000000000000000078
S11304800000000000000000000000000000000068
S11304900000000000000000000000000000000058
S11304A00000000000000000000000000000000048
S11304B00000000000000000000000000000000038
S11304C00000000000000000000000000000000028
S11304D00000000000000000000000000000000018
S11304E00000000000000000000000000000000008
S11304F000000000000000000000000000000000F8
S113050000000000000000000000000000000000E7
S113051000000000000000000000000000000000D7
S113052000000000000000000000000000000000C7
S113053000000000000000000000000000000000B7
S11305400000000011241FBECFEFD4E0DEBFCDBFFA
S113055012E0A0E0B1E0E2E7F2E202C005900D9201
S1130560A230B107D9F722E0A2E0B2E001C01D92A7
S1130570AA32B207E1F70E94D10B0C9437110C9404
S113058000000E94B10B0E9421048FEF9FE20197AB
S1130590F1F700C000008EE00E94D103807E803815
S11305A021F089E091E00E94FA0D47E067E088E2DB
S11305B00E9409044CEA6FEF89E20E94090443E0B7
S11305C06FEF8AE20E94090461E08BE20E94E0037B
S11305D060E08FE00E94E0038EE00E94D103807E01
S11305E021F08EE391E00E94FA0D0895EF92FF92BC
S11305F00F931F93CF93DF93CDB7DEB72C970FB62E
S1130600F894DEBF0FBECDBFE982FA820B831C8350
S11306102D833E834F83588769877A878B879C878E
S1130620E980FA80602F85E30E94E003B7017695A4
S11306306795769567957695679581E30E94E003C3
S11306406E2D6295660F607E82E30E94E0030023B4
S113065079F07E0184E0E80EF11C0A5C16E3F701F0
S113066061917F01812F0E94E0031F5F1013F7CF78
S113067081E00E94F8032C960FB6F894DEBF0FBEFB
S1130680CDBFDF91CF911F910F91FF90EF9008950F
S113069024E6829FC00111246FEF70E00E943E0C9B
S11306A0862F0895861718F0962F909501C0962FDF
S11306B0282F30E0261B310984E6829FA001839F06
S11306C0500D1124692F70E0CA010E943E0CCB0129
S11306D008951F93CF93DF93162F66EA0E94520367
S11306E0EC0162EA812F0E945203AE01BC01CB01EE
S11306F0BA01DF91CF911F91089586B38170089557
S113070086B3869581700895E0E0F4E183E8808300
S11307108CEC94E00197F1F700C00000808108950B
S1130720E0E0F4E182E880838CEC94E00197F1F757
S113073000C000008081089581E8809304148FEF45
S11307409FE50197F1F700C0000080910014E0E0FC
S1130750F0EF3197F1F7089580E8809304148FEF58
S11307609FE50197F1F700C0000080910014E0E0DC
S1130770F0EF3197F1F708958D9A8EB588608EBDAC
S11307808EB581608EBD8EB58D7F8EBD8EB58B7F0F
S11307908EBD8FB580648FBD81E090E09BBD8ABD26
S11307A00895CF93C82FC49883E00E94B70B8C2F71
S11307B00E94B70B8FEF0E94B70BC49ACF91089594
S11307C0CF93DF93D82FC62FC49882E00E94B70B33
S11307D08D2F0E94B70B83EC99E00197F1F700C0CD
S11307E000008C2F0E94B70BC49ADF91CF9108951B
S11307F0C498883048F085E68F9382E78F930E94EF
S1130800E40D0F900F9003C080680E94B70BC49A48
S113081008951F93CF93DF93182FD62FC42FC49816
S113082085E00E94B70B812F0E94B70B8D2F0E9489
S1130830B70B8C2F0E94B70BC49ADF91CF911F91F5
S11308400895C49880EC0E94B70BC49A08952F921F
S11308503F924F925F926F927F928F929F92AF924C
S1130860BF92CF92DF92EF92FF920F931F93CF9399
S1130870DF9300D000D000D0CDB7DEB78AE190E09E
S11308800E94660C9E838D838AE190E00E94660C30
S11308904C018AE190E00E94660C1C018AE190E020
S11308A00E94660C9A8389838AE190E00E94660C18
S11308B05C018AE190E00E94660C6C018AE190E0A0
S11308C00E94660C7C018AE190E00E94660C9C8385
S11308D08B838AE190E00E94660C8C018AE190E0AF
S11308E00E94660C3C018AE190E00E94660C2C0197
S11308F08AE190E00E94660CAD81BE8118962AE0E0
S1130900E0E6F1E001900D922A95E1F7ED81FE8198
S1130910178216829182808213821282B582A48207
S113092021E030E0318F208FD40118962AE0EAE6E6
S1130930F1E001900D922A95E1F7F40117821682F5
S1130940318220822D813E81338322831583048367
S113095022E030E0318F208FD101189628E0E4E7BF
S1130960F1E001900D922A95E1F7F10117821682C8
S113097011821082938282822B813C81358324836D
S113098023E030E0318F208FA981BA8118962CE0C2
S1130990ECE7F1E001900D922A95E1F72D813E817B
S11309A0E981FA813783268311821082F382E282FD
S11309B01582148224E030E0318F208FD5011896FF
S11309C025E0E8E8F1E001900D922A95E1F72D8108
S11309D03E81F50137832683D182C082138212823D
S11309E01582148225E030E0318F208FD6011896CD
S11309F027E0EDE8F1E001900D922A95E1F72D81D1
S1130A003E81F60137832683F182E082B382A2829B
S1130A101582148226E030E0318F208FD70118969A
S1130A2025E0E4E9F1E001900D922A95E1F72D81AA
S1130A303E81F7013783268329813A8131832083DC
S1130A40D382C2821582148227E030E0318F208F56
S1130A50AB81BC8118962EE0E9E9F1E001900D929A
S1130A602A95E1F72D813E81EB81FC813783268332
S1130A7011821082138212821582148229E030E0DE
S1130A80318F208FD801189625E0E8E8F1E0019035
S1130A900D922A95E1F72D813E81F8013783268353
S1130AA07182608213821282158214822AE030E0FD
S1130AB0318F208FD301189627E0EDE8F1E0019003
S1130AC00D922A95E1F72D813E81F3013783268328
S1130AD05182408213830283158214822BE030E01A
S1130AE0318F208FD201189625E0E4E9F1E00190DE
S1130AF00D922A95E1F72D813E81F20137832683F9
S1130B009183808373826282158214822CE030E0A8
S1130B10318F208FDC011896ECE7F1E001900D9203
S1130B202A95E1F72D813E81FC01378326831182CA
S1130B30108253824282158214822DE030E0318F7C
S1130B40208F8D819E8190931D0280931C0290932F
S1130B501F0280931E0226960FB6F894DEBF0FBEC6
S1130B60CDBFDF91CF911F910F91FF90EF90DF9058
S1130B70CF90BF90AF909F908F907F906F905F9039
S1130B804F903F902F9008951F93CF93DF930E942F
S1130B90B607C0911C02D0911D022097E1F010E02D
S1130BA01F5F2FEF8FEF95E0215080409040E1F7D9
S1130BB000C000C043E0612FCE0108960E94830765
S1130BC080910601909107010E949D080990D881A7
S1130BD0C02D209729F74AE06091080180E00E9427
S1130BE0D00780910601909107010E949D08DF9132
S1130BF0CF911F910895E0911E02F0911F02808110
S1130C00918190931F0280931E0208951F93CF93A6
S1130C10DF93E0911E02F0911F0280819181892B64
S1130C2089F10E94FB050E94B607809108018F5F3D
S1130C3080930801C0911C02D0911D022097B1F04D
S1130C4010E01F5F43E0612FCE0108960E948307E6
S1130C5080910601909107010E949D080990D88116
S1130C60C02D00C000C00000209759F74AE06091F1
S1130C70080180E00E94D00780910601909107014D
S1130C800E949D08DF91CF911F910895E0911E026B
S1130C90F0911F028281938190931F0280931E0220
S1130CA008951F93CF93DF93E0911E02F0911F02EA
S1130CB082819381892B89F10E9446060E94B6079E
S1130CC080910801815080930801C0911C02D09149
S1130CD01D022097B1F010E01F5F43E0612FCE01A9
S1130CE008960E94830780910601909107010E9453
S1130CF09D080990D881C02D84EA8A95F1F7209740
S1130D0059F74AE06091080180E00E94D007809181
S1130D100601909107010E949D08DF91CF911F91D8
S1130D2008958091060190910701892B29F0109272
S1130D30070110920601089581E090E09093070165
S1130D40809306010895E0911E02F0911F028681AE
S1130D5097810097A9F090931D0280931C029093B1
S1130D601F0280931E0281E0809308010E94B6074F
S1130D708FEF9FE20197F1F700C000000E94C405C5
S1130D800895E0911E02F0911F02848195810097DD
S1130D90B1F090931D0280931C0290931F028093E4
S1130DA01E0281E0809308010E94B6078FEF9FE244
S1130DB00197F1F700C000000E94C4050895389619
S1130DC0FF93EF930E94E40DE0911E02F0911F0245
S1130DD0808D918D0F900F908530910539F48AE0C4
S1130DE090E00E94D9080E94A306089586309105D8
S1130DF039F48BE090E00E94D9080E94A30608957C
S1130E008730910539F48CE090E00E94D9080E9463
S1130E10A30608958A30910521F481E00E94F40923
S1130E2008958B30910521F483E00E94F40908951C
S1130E308C30910521F484E00E94F40908958930EE
S1130E40910519F40E94910608950D9711F40E94DA
S1130E50050B089582958F7080618093001000C007
S1130E6000C000000895E0E0F0E1806B808300C0E2
S1130E7000C0000062956F706061608300C000C0B4
S1130E800000089560E00E94330708950F931F93B4
S1130E90CF930E944207C0E000E012E18C2F0E9431
S1130EA02A07F8011082CF5FC038C1F7CF911F9194
S1130EB00F910895CF93C0E08C2F0E944607CF5F17
S1130EC0C830D1F760E080E00E943307CF910895E5
S1130ED028E0829FC0011124FC01E059F04050E059
S1130EE080E8689F400D511D1124DA01B85E485F07
S1130EF0574E849100C000C000008D933196A41712
S1130F00B507B9F70895CF92DF92EF92FF920F934E
S1130F101F93CF93DF938C01D62F7C01C42FCC0F6A
S1130F20CC0FCC0FC12CD12C0EC04C2F6D2FF70140
S1130F3081917F010E94680700C000C00000FFEF9C
S1130F40CF1ADF0AC85FF80101900020E9F7319752
S1130F50E01BF10BCE16DF0640F3DF91CF911F911A
S1130F600F91FF90EF90DF90CF900895E0E0F8E1CB
S1130F701192E1158CE1F807D9F708958FEA80936F
S1130F8000108FEF9FE20197F1F700C0000060E0CE
S1130F9080E00E9433070E945A070E94B607089512
S1130FA090E0FC01EE0FFF1FEE0FFF1FE80FF91F8B
S1130FB0E859FC4F50E080E8689F400D511D112412
S1130FC0DA01B85E4B5F574E849100C000C0000048
S1130FD08D933196A417B507B9F70895962F969572
S1130FE096959695E82FF0E080E8989FE00DF11D26
S1130FF01124F85E677081E090E002C0880F991FA9
S11310006A95E2F79081892B80830895962F9695AF
S113101096959695E82FF0E080E8989FE00DF11DF5
S11310201124F85E677081E090E002C0880F991F78
S11310306A95E2F7809590818923808308956F9261
S11310407F928F929F92AF92BF92CF92DF92EF9254
S1131050FF920F931F93CF93DF93E82FF0E0E038D4
S1131060F10514F0EFE7F0E01E2F862F90E08034B6
S1131070910514F08FE390E0D82F99274C01820E4C
S1131080911C20E4821691042CF00F2EFFE38F2E86
S1131090912CF02D88159905D4F02EC0C12F002372
S11310A029F06D2F8C2F0E94060804C06D2F8C2F01
S11310B00E94EE07CF5F8C2F90E08E159F057CF386
S11310C0DF5F8D2F90E0881599055CF015C05F01F6
S11310D0BB246501C40ED11C0F2EFFE76F2EF02D2B
S11310E0712C760180E8C816D10414F0E62CF72C94
S11310F0AE14BF049CF2E4CFDF91CF911F910F9106
S1131100FF90EF90DF90CF90BF90AF909F908F9023
S11311107F906F9008958295982F9C7C292F269517
S11311202695982F9373990F990F922B892F8A7A6A
S113113086959575990F892B0895AF92BF92CF929A
S1131140DF92EF92FF920F931F93CF93DF936C0183
S11311500F2EA12CFCE1BF2EF02DD0E00F2EE12CA0
S1131160F2E1FF2EF02D8D2F0E9442078501C0E091
S11311708C2F0E942A07F80182918F01C114D10497
S113118011F00E948B08F7018083CF5FC03881F78C
S1131190DF5FF0E8AF1AB108D83029F7DF91CF91BB
S11311A01F910F91FF90EF90DF90CF90BF90AF9081
S11311B00895AF92BF92DF92EF92FF920F931F9325
S11311C0CF93DF93CDB7DEB72C970FB6F894DEBF7D
S11311D00FBECDBF5C010E94B60743E061E087EA21
S11311E091E00E9483074CE363E084E00E94D0070F
S11311F081E090E00E949D080F2EF6E0DF2EF02D96
S113120089EF90E00197F1F700C000000E949C0371
S1131210182F0E94AC03682F812F0E946903BA82A1
S1131220A9826C838D830E947D038E830E94800338
S11312308F830E9484030E94480388870E9490033E
S11312400E9448038987DB82E980FA800D2D1C8186
S11312502D813E814F815885682F7A858B859C85A9
S11312600E94F60283ED90E30197F1F700C00000BD
S11312700E947D03882321F22C960FB6F894DEBFDA
S11312800FBECDBFDF91CF911F910F91FF90EF90D3
S1131290DF90BF90AF9008950F931F93CF93DF9388
S11312A0CDB7DEB727970FB6F894DEBF0FBECDBF1C
S11312B0632F70E061507109822F90E000E010E02C
S11312C023E030E043E050E001970E941F08279696
S11312D00FB6F894DEBF0FBECDBFDF91CF911F9143
S11312E00F910895292FFA01808190E0861B9109BE
S11312F001960397D8F4818190E0871B9109322FDE
S11313003695831B9109AC0122F444275527481BC9
S1131310590B30E0421753075CF465E070E00E941B
S11313203E0C8481680F648381E0089580E0089511
S113133080E00895CF92DF92EF92FF920F931F9374
S1131340CF93DF93EC01CB01BA01680179012881C5
S11313503B81432F330F550BFA01E20FF11D4981F5
S11313602C81022E000C330B8901040F111DE1386E
S1131370F105A0F020E4288320E229831C8221E0E7
S1131380E138F1050CF420E03D81230F2D832F2F4C
S1131390221F2227221F3E81230F2E83AE010E948B
S11313A07209811107C0AE01C701B6010E9472091A
S11313B0882319F08B8181958B830134110518F0F2
S11313C08C8181958C8398818B81890F8883998105
S11313D08C81890F8983DF91CF911F910F91FF90A9
S11313E0EF90DF90CF9008952F923F924F925F92AB
S11313F06F927F928F929F92AF92BF92CF92DF9221
S1131400EF92FF920F931F93CF93DF93CDB7DEB785
S1131410A4970FB6F894DEBF0FBECDBF182F82EB92
S113142091E09F938F930E94E40D84E0898390E27E
S11314309A8381E08B832AE02C833BE73D839E8360
S11314408F832887998790E49A8793E09B871C87EA
S11314508D871E861F860F900F900F2EF0EC6F2E37
S1131460F1E07F2EF02D0F2EF1ED4F2EF1E05F2EE7
S1131470F02D0F2EF3EECF2EF1E0DF2EF02D4E01E6
S113148020E2820E911C5E013BE1A30EB11C7E01A1
S113149080E1E80EF11C0F2EFAE32F2E312CF02DF3
S11314A00E945A070E94B6070E949003182F092F22
S11314B00E9484030F931F939F938F937F926F9245
S11314C00E94E40D8E811F928F938A811F928F93C5
S11314D05F924F920E94E40D0E948403682FCE0114
S11314E001960E949F0B0E949003682FCE010596DF
S11314F00E949F0B69817A818B819C810E94940B4D
S11315006D817E818F8198850E94940B0D811E814F
S11315102F81388549815A816B817C81CE0109965E
S11315200E949A0929853A854B855C856D857E855F
S11315308F850E944C0983EC99E00197F1F700C074
S113154000008E851F928F93DF92CF929F928F928D
S11315500E942A0E8F851F928F93DF92CF92BF92A3
S1131560AF920E942A0EB401C7010E94920DF701A6
S113157001900020E9F7319731822082B501C7013B
S11315800E94870D43E050E060E070E0C7010E94D4
S1131590830781E090E00E949D088FE097E2019725
S11315A0F1F700C000000E947D030FB6F894DEBF7F
S11315B00FBECDBF892B09F473CFE9E0F0E282912D
S11315C08283E11530E2F307D1F7CE018096809350
S11315D00020059780930120A4960FB6F894DEBFEF
S11315E00FBECDBFDF91CF911F910F91FF90EF9070
S11315F0DF90CF90BF90AF909F908F907F906F902F
S11316005F904F903F902F9008956F927F928F92AA
S11316109F92AF92BF92CF92DF92EF92FF920F937D
S11316201F93CF93DF93CDB7DEB765970FB6F894CA
S1131630DEBF0FBECDBF0E94B60787E893E10197D6
S1131640F1F700C0000040E050E060E070E083E7A4
S113165095E60E94830700E010E20F2EF3EECF2EF2
S1131660F1E0DF2EF02D4E0191E1890E911C5E0117
S1131670ECE0AE0EB11CCE0101967C010F2EFAE314
S11316806F2E712CF02DF80180811F928F93DF92C1
S1131690CF929F928F920E942A0EF80181811F920D
S11316A08F93DF92CF92BF92AF920E942A0EB40121
S11316B0C7010E94920DF70101900020E9F73197CC
S11316C071826082B501C7010E94870D602F669503
S11316D070E06F5F7F4F43E050E0C7010E948307D3
S11316E081E090E00E949D080E5F1F4F0FB6F894B2
S11316F0DEBF0FBECDBF0A3090E2190721F6659612
S11317000FB6F894DEBF0FBECDBFDF91CF911F910E
S11317100F91FF90EF90DF90CF90BF90AF909F908C
S11317208F907F906F9008950F93362F672F00E06E
S1131730292F482F832F0E941F080F910895FC0121
S1131740438120E430E0241B3109629FA001639FA0
S1131750500D1124552314F441505F4FFC01518363
S1131760089580EB87BB81E58DB9C69808958FB93C
S1131770779BFECF8FB10895159BFECF83B9089553
S1131780179BFECF83B108959CBF80B988E181B9CE
S11317908EE88CBF60EC7BE08CEB9BE00E94990DA3
S11317A008958FB780688FBF8A98D09A8FEF8ABBCD
S11317B0319A84B38F6084BB8F9A8E9A85B7806880
S11317C085BF80B7806280BF8FE190E00E94C40B28
S11317D086EE91E00E94FA0D0E94BC030E94BE07AF
S11317E00E94C1020E9427040E94C4050E94AC0307
S11317F065EA70E00E9452038B30910564F00E9408
S113180051062FEF8FEF92E0215080409040E1F796
S113181000C000C0EBCF863F9F4F64F40E940606D1
S11318208FEF9FEF22E0815090402040E1F700C00D
S113183000C0DCCF0E948003892B81F082EF91E00D
S11318400E94FA0D0E94C1068FEF9FE727E08150A6
S113185090402040E1F700C00000C8CF0E947D0303
S1131860892B21F20E94A3068FEF9FE727E0815086
S113187090402040E1F700C00000B8CF97FB072E4E
S113188016F4009407D077FD09D00E94520C07FC8F
S113189005D03EF4909581959F4F0895709561957C
S11318A07F4F0895AA1BBB1B51E107C0AA1FBB1F92
S11318B0A617B70710F0A61BB70B881F991F5A95D8
S11318C0A9F780959095BC01CD0108950F931F93BE
S11318D0CF93DF938230910510F482E090E0E091A1
S11318E02202F091230220E030E0A0E0B0E0309743
S11318F019F1408151810281138148175907C8F0B9
S11319008417950769F4109731F012960C93129787
S113191013961C9327C0009322021093230222C023
S11319202115310519F04217530718F49A01BD0126
S1131930EF01DF01F801DBCF21153105F9F0281B98
S1131940390B2430310580F48A819B81611571053E
S113195021F0FB019383828304C09093230280933C
S11319602202FE01329644C0FE01E20FF31F81936E
S1131970919322503109398328833AC0209120025F
S113198030912102232B41F4209102013091030173
S11319903093210220932002209100013091010113
S11319A02115310541F42DB73EB740910401509102
S11319B00501241B350BE0912002F0912102E2176E
S11319C0F307A0F42E1B3F0B2817390778F0AC015E
S11319D04E5F5F4F2417350748F04E0F5F1F50933B
S11319E02102409320028193919302C0E0E0F0E051
S11319F0CF01DF91CF911F910F910895CF93DF9382
S1131A00009709F481C0FC01329713821282A091DD
S1131A102202B0912302109781F420813181820F38
S1131A20931F20912002309121022817390751F584
S1131A30F0932102E093200267C0ED0120E030E042
S1131A40CE17DF0740F44A815B819E0141155105A1
S1131A50F1F0EA01F5CFD383C28340815181840F31
S1131A60951FC817D90759F488819981840F951F48
S1131A700296918380838A819B819383828321153B
S1131A80310529F4F0932302E09322023DC0E901D9
S1131A90FB83EA8349915991C40FD51FEC17FD07C5
S1131AA061F480819181840F951F0296E9019983E5
S1131AB08883828193819B838A83E0E0F0E012969D
S1131AC08D919C911397009719F0FD01DC01F7CFDC
S1131AD08D919C9111979D012E5F3F4F820F931F13
S1131AE020912002309121022817390769F4309798
S1131AF029F4109223021092220202C0138212824D
S1131B00B0932102A0932002DF91CF910895FB01AD
S1131B10DC010D900020E9F7119701900D9200204F
S1131B20E1F70895FB01DC0101900D920020E1F73B
S1131B3008950F931F93CF93DF93009731F46115AA
S1131B40710519F480E090E03AC08B01EC016EE07D
S1131B5070E081E090E00E942D10FC01892B91F34C
S1131B6080E883830115110571F01387028781E8EA
S1131B7083838091240290912502892B21F4F09390
S1131B802502E09324022097C9F0D187C08783817E
S1131B90826083838091260290912702892B71F4BD
S1131BA0F0932702E0932602809128029091290263
S1131BB0892B21F4F0932902E0932802CF01DF91CD
S1131BC0CF911F910F910895A0E0B0E0EAEEFDE0FF
S1131BD00C941011AE014B5F5F4FFA01619171914A
S1131BE0AF0180912602909127020E944C0EE2E000
S1131BF00C942C110F931F93CF93DF93E091260243
S1131C00F0912702238121FF1BC08C01D0E0C0E0AA
S1131C10F80181918F016091260270912702DB0106
S1131C201896ED91FC911997882331F00995892B29
S1131C3079F3DFEFCFEFECCF8AE00995892B19F028
S1131C408FEF9FEF02C08D2F9C2FDF91CF911F91BB
S1131C500F910895AEE0B0E0E0E3FEE00C940E11C5
S1131C600D891E8986E08C831A8309838FEF9FE791
S1131C709E838D83AE01475E5F4F6F89788DCE0161
S1131C8001960E944C0EEF81F885E00FF11F10823F
S1131C902E96E4E00C942A11ABE0B0E0E2E5FEE01D
S1131CA00C9400116C017B018A01FC0117821682DD
S1131CB0838181FFCCC1CE0101963C01F601938161
S1131CC0F70193FD859193FF81917F01882309F4A6
S1131CD0BAC1853239F493FD859193FF81917F01D7
S1131CE0853229F4B60190E00E946610E7CF912C6A
S1131CF0212C312CFFE1F315D8F08B3279F038F434
S1131D00803279F08332A1F4232D20611DC08D32FD
S1131D1061F0803369F4232D216016C0832D826025
S1131D20382EE32DE4603E2E2AC0F32DF8601DC04A
S1131D3037FC2DC020ED280F2A3040F08E32B9F444
S1131D4036FC81C1232D2064322E19C036FE06C014
S1131D508AE0989E200D1124922E11C0EAE02E9E56
S1131D60200D1124222EF32DF0623F2E08C08C3654
S1131D7021F4832D8068382E02C0883641F4F7019F
S1131D8093FD859193FF81917F018111B3CF982FAA
S1131D909F7D9554933028F40C5F1F4F9FE39983E4
S1131DA00DC0833631F0833771F0833509F059C0A3
S1131DB021C0F801808189830E5F1F4F882483949A
S1131DC0912C530113C02801F2E04F0E511CF8016D
S1131DD0A080B18036FE03C0692D70E002C06FEFB1
S1131DE07FEFC5010E945B104C018201F32DFF7748
S1131DF03F2E16C0280122E0420E511CF801A0809B
S1131E00B18036FE03C0692D70E002C06FEF7FEF32
S1131E10C5010E9449104C01F32DF0683F2E820148
S1131E2033FC1BC0822D90E088169906B0F4B601ED
S1131E3080E290E00E9466102A94F4CFF50137FC0A
S1131E40859137FE81915F01B60190E00E94661092
S1131E5021102A9421E0821A91088114910471F7C7
S1131E60E8C0843611F0893641F5F80137FE07C021
S1131E7060817181828193810C5F1F4F08C06081F2
S1131E807181072E000C880B990B0E5F1F4FF32DE9
S1131E90FF763F2E97FF09C09095809570956195C8
S1131EA07F4F8F4F9F4FF0683F2E2AE030E0A30111
S1131EB00E94A210882E861845C0853731F4232D40
S1131EC02F7EB22E2AE030E025C0932D997FB92EC3
S1131ED08F36C1F018F4883579F0B5C0803719F021
S1131EE0883721F0B0C0E92FE061BE2EB4FE0DC0EA
S1131EF0FB2DF460BF2E09C034FE0AC0292F2660D2
S1131F00B22E06C028E030E005C020E130E002C077
S1131F1020E132E0F801B7FE07C06081718182815F
S1131F2093810C5F1F4F06C06081718180E090E057
S1131F300E5F1F4FA3010E94A210882E8618FB2D4E
S1131F40FF773F2E36FE0DC0232D2E7FA22E89143F
S1131F5058F434FE0BC032FC09C0832D8E7EA82EAB
S1131F6005C0B82CA32C03C0B82C01C0B92CA4FE06
S1131F700FC0FE01E80DF11D8081803321F49A2DFC
S1131F80997EA92E09C0A2FE06C0B394B39404C0DE
S1131F908A2D867809F0B394A3FC11C0A0FE06C074
S1131FA0B21488F4280C922C9B180EC0B21460F45E
S1131FB0B60180E290E00E946610B394F7CFB214A9
S1131FC018F42B1802C0982C212CA4FE10C0B601C2
S1131FD080E390E00E946610A2FE17C0A1FC03C03B
S1131FE088E790E002C088E590E0B6010CC08A2D35
S1131FF0867859F0A1FE02C08BE201C080E2A7FC02
S11320008DE2B60190E00E946610891438F4B6019E
S113201080E390E00E9466109A94F7CF8A94F301CB
S1132020E80DF11D8081B60190E00E9466108110D8
S1132030F5CF222009F442CEB60180E290E00E945E
S113204066102A94F6CFF6018681978102C08FEF3D
S11320509FEF2B96E2E10C941C110F931F93CF93E7
S1132060DF93869F8001879F100D969F100D11248A
S1132070C8010E94660CEC01009729F0A80160E0F9
S113208070E00E945410CE01DF91CF911F910F9107
S11320900895FC010590615070400110D8F78095B7
S11320A090958E0F9F1F0895DC0101C06D934150E0
S11320B05040E0F70895FC01615070400190011018
S11320C0D8F7809590958E0F9F1F08950F931F93B7
S11320D0CF93DF93FB01238121FD03C08FEF9FEF9B
S11320E02CC022FF16C046815781248135814217B6
S11320F0530744F4A081B1819D012F5F3F4F318389
S113210020838C93268137812F5F3F4F378326832B
S113211014C08B01EC01FB010084F185E02D0995CD
S1132120892BE1F6D80116968D919C91179701960B
S113213017969C938E931697CE01DF91CF911F91A2
S11321400F910895FA01AA27283051F1203181F125
S1132150E8946F936E7F6E5F7F4F8F4F9F4FAF4FAB
S1132160B1E03ED0B4E03CD0670F781F891F9A1FBE
S1132170A11D680F791F8A1F911DA11D6A0F711D72
S1132180811D911DA11D20D009F468943F912AE07E
S1132190269F11243019305D3193DEF6CF01089566
S11321A0462F4770405D4193B3E00FD0C9F7F6CF97
S11321B0462F4F70405D4A3318F0495D31FD40525F
S11321C0419302D0A9F7EACFB4E0A69597958795F5
S11321D077956795BA95C9F70097610571050895D4
S11321E09B01AC010A2E0694579547953795279580
S11321F0BA95C9F7620F731F841F951FA01D089518
S11322002F923F924F925F926F927F928F929F9202
S1132210AF92BF92CF92DF92EF92FF920F931F93F0
S1132220CF93DF93CDB7DEB7CA1BDB0B0FB6F894A1
S1132230DEBF0FBECDBF09942A88398848885F84E1
S11322406E847D848C849B84AA84B984C884DF8052
S1132250EE80FD800C811B81AA81B981CE0FD11D36
S11322600FB6F894DEBF0FBECDBFED010895F8940C
S1052270FFCF9A
S113227200002A0220000100010A0A4D43503235AF
S11322823135206973204E4F5420696E20636F6E7E
S113229266696775726174696F6E206D6F6465201B
S11322A261667465722072657365742021000A0A7E
S11322B24D435032353135206973204E4F542069D5
S11322C26E206E6F726D616C206D6F6465202100EB
S11322D2506C61792050696E6700506C61792050AE
S11322E26F6E67004F7074696F6E73004869676838
S11322F22053636F7265730045617379004D6564A1
S113230269756D004861726400496E766572742065
S113231253637265656E00476F6F64204C75636B1F
S1132322210068656C6C6C6F2067616D6572730067
S1132332536C69646572203D2025642C2025640A4F
S113234200706C6179657273203D2025642C202510
S1132352640A002564000A0A52756E206D61696E72
S11323623A00627574746F6E20707265737365647B
S1052372000065
S9030000FC
