S016000070696E6720706F6E6720746573742E73726563AC
S11300000C94A2020C94BF020C94BF020C94BF0285
S11300100C94BF020C94BF020C94BF020C94BF0258
S11300200C94BF020C94BF020C94BF020C94BF0248
S11300300C94BF020C94BF020C94BF020C94BF0238
S11300400C94BF020C94BF020C94BF020C94BF0228
S11300500C94BF020C94BF020C94BF020C94BF0218
S11300600C94BF020C94BF020C94BF020C94BF0208
S1130070000000000000000000065F5F06000000B2
S11300800007070007070000147F7F147F7F140018
S1130090242E6B6B3A120000466630180C66620020
S11300A0307A4F5D377A48000407030000000000EF
S11300B0001C3E63410000000041633E1C00000040
S11300C0082A3E1C1C3E2A0808083E3E0808000078
S11300D000A0E0600000000008080808080800000C
S11300E000006060000000006030180C060301008E
S11300F03E7F594D7F3E000042427F7F40400000DA
S1130100627359496F660000226349497F360000D3
S1130110181C16137F7F1000276745457D390000A2
S11301203C7E4B4979300000036371190F070000CE
S1130130367F49497F360000064F49693F1E00005B
S113014000006C6C0000000000A0EC6C00000000DB
S1130150081C366341000000141414141414000025
S1130160004163361C080000020351590F060000C9
S11301703E7F415D5D1F1E007C7E13137E7C00006C
S1130180417F7F49497F36001C3E63414163220021
S1130190417F7F41637F1C00417F7F495D41630054
S11301A0417F7F491D0103001C3E6341517372006E
S11301B07F7F08087F7F000000417F7F41000000AF
S11301C0307040417F3F0100417F7F081C7763000E
S11301D0417F7F41406070007F7F060C067F7F0077
S11301E07F7F060C187F7F001C3E6341633E1C002A
S11301F0417F7F49090F06001E3F21717F5E000089
S1130200417F7F19396F460026674D597B320000C4
S113021003417F7F410300007F7F40407F7F0000D8
S11302201F3F60603F1F00007F7F3018307F7F00DA
S113023063771C081C776300074F78784F0700002A
S11302406773594D47637100007F7F41410000008F
S11302500103060C183060000041417F7F0000005C
S1130260080C0603060C0800808080808080808053
S11302700000030704000000207454543C7840003C
S1130280413F7F44447C3800387C44446C2800005F
S1130290307848493F7F4000387C54545C18000053
S11302A0487E7F490302000098BCA4A4F87C0400A3
S11302B0417F7F08047C780000447D7D400000007D
S11302C040C484FD7D000000417F7F10386C4400F1
S11302D000417F7F400000007C7C0C180C7C78007F
S11302E07C7C04047C780000387C44447C38000026
S11302F084FCF8A4243C1800183C24A4F8FC8400D2
S1130300447C78441C180000485C54547424000055
S113031000043E7F442400003C7C40403C7C400080
S11303201C3C60603C1C00003C7C6030607C3C00F9
S1130330446C3810386C44009CBCA0A0FC7C0000C9
S11303404C64745C4C64000008083E774141000032
S113035000000077770000004141773E0808000064
S113036002030103020301003030FC78303078FCD2
S113037030302038FE38200838FE38087CD6FEC6D7
S11303807C000000000000000000000000000000ED
S11303900000000000000000000000000000000059
S11303A00000000000000000000000000000000049
S11303B00000000000000000000000000000000039
S11303C00000000000000000000000000000000029
S11303D00000000000000000000000000000000019
S11303E00000000000000000000000000000000009
S11303F000000000000000000000000000000000F9
S113040000000000000000000000000000000000E8
S113041000000000000000000000000000000000D8
S113042000000000000000000000000000000000C8
S113043000000000000000000000000000000000B8
S113044000000000000000000000000000000000A8
S11304500000000000000000000000000000000098
S11304600000000000000000000000000000000088
S11304700000000000000000000000000000000078
S11304800000000000000000000000000000000068
S11304900000000000000000000000000000000058
S11304A00000000000000000000000000000000048
S11304B00000000000000000000000000000000038
S11304C00000000000000000000000000000000028
S11304D00000000000000000000000000000000018
S11304E00000000000000000000000000000000008
S11304F000000000000000000000000000000000F8
S113050000000000000000000000000000000000E7
S113051000000000000000000000000000000000D7
S113052000000000000000000000000000000000C7
S113053000000000000000000000000000000000B7
S11305400000000011241FBECFEFD4E0DEBFCDBFFA
S113055012E0A0E0B1E0E2EFF0E202C005900D92FB
S1130560A830B107D9F722E0A8E0B2E001C01D929B
S1130570A033B207E1F70E94110B0C9477100C948E
S113058000000E94F10A0E9432048FEF9FE201975B
S1130590F1F700C000008EE00E94E203807E803804
S11305A021F087E091E00E943A0D1F921F921F9262
S11305B08FE18F938CE391E09F938F930E94240D9E
S11305C047E067E088E20E941A044CEA6FEF89E290
S11305D00E941A0443E06FEF8AE20E941A0461E069
S11305E08BE20E94F10360E08FE00E94F1038EE051
S11305F00E94E203807E0F900F900F900F900F9057
S11306000F9021F088E491E00E943A0D0895EF9252
S1130610FF920F931F93CF93DF93CDB7DEB72C9741
S11306200FB6F894DEBF0FBECDBFE982FA820B830A
S11306301C832D833E834F83588769877A878B87F2
S11306409C87E980FA80602F85E30E94F103B7015B
S113065076956795769567957695679581E30E947B
S1130660F1036E2D6295660F607E82E30E94F103B2
S1130670002379F07E0184E0E80EF11C0A5C16E3A5
S1130680F70161917F01812F0E94F1031F5F101315
S1130690F7CF81E00E9409042C960FB6F894DEBFD0
S11306A00FBECDBFDF91CF911F910F91FF90EF90BF
S11306B0089524E6829FC00111246FEF70E00E9428
S11306C07E0B862F0895861718F0962F909501C0FB
S11306D0962F282F30E0261B310984E6829FA00143
S11306E0839F500D1124692F70E0CA010E947E0B74
S11306F0CB0108951F93CF93DF93162F66EA0E94D0
S11307006303EC0162EA812F0E946303AE01BC0122
S1130710CB01BA01DF91CF911F91089586B3817007
S1130720089586B3869581700895E0E0F4E183E846
S113073080838CEC94E00197F1F700C00000808185
S11307400895E0E0F4E182E880838CEC94E0019782
S1130750F1F700C000008081089581E880930414BB
S11307608FEF9FE50197F1F700C00000809100141E
S1130770E0E0F0EF3197F1F7089580E880930414F6
S11307808FEF9FE50197F1F700C0000080910014FE
S1130790E0E0F0EF3197F1F708958D9A8EB5886017
S11307A08EBD8EB581608EBD8EB58D7F8EBD8EB5AE
S11307B08B7F8EBD8FB580648FBD81E090E09BBD43
S11307C08ABD0895CF93C82FC49883E00E94F70A86
S11307D08C2F0E94F70A8FEF0E94F70AC49ACF91D8
S11307E00895CF93DF93D82FC62FC49882E00E9438
S11307F0F70A8D2F0E94F70A83EC99E00197F1F72D
S113080000C000008C2F0E94F70AC49ADF91CF9198
S11308100895C498883048F085E68F9382E78F93D3
S11308200E94240D0F900F9003C080680E94F70A65
S1130830C49A08951F93CF93DF93182FD62FC42FF4
S1130840C49885E00E94F70A812F0E94F70A8D2F31
S11308500E94F70A8C2F0E94F70AC49ADF91CF9165
S11308601F910895C49880EC0E94F70AC49A0895D1
S11308702F923F924F925F926F927F928F929F92AC
S1130880AF92BF92CF92DF92EF92FF920F931F939A
S1130890CF93DF93CDB7DEB728970FB6F894DEBFBA
S11308A00FBECDBF8AE190E00E94A60B98878F838C
S11308B08AE190E00E94A60B4C018AE190E00E943C
S11308C0A60B9A8389838AE190E00E94A60B9C83FD
S11308D08B838AE190E00E94A60B5C018AE190E0A0
S11308E00E94A60B6C018AE190E00E94A60B7C0199
S11308F08AE190E00E94A60B8C018AE190E00E94BC
S1130900A60B9E838D838AE190E00E94A60B3C0196
S11309108AE190E00E94A60B2C018AE190E00E94FB
S1130920A60B1C018AE190E00E94A60BAF81B8855A
S113093018962AE0EAE6F1E001900D922A95E1F793
S1130940EF81F88517821682918280821382128247
S1130950B582A48221E030E0318F208FD401189633
S11309602AE0E4E7F1E001900D922A95E1F7F40121
S11309701782168229813A81318320832F81388519
S1130980338322837582648222E030E0318F208FAA
S1130990A981BA81189628E0EEE7F1E001900D9262
S11309A02A95E1F7E981FA81178216821182108271
S11309B0938282822D813E813583248323E030E03B
S11309C0318F208FAB81BC8118962CE0E6E8F1E0F2
S11309D001900D922A95E1F72F813885EB81FC81F6
S11309E03783268311821082138302831582148233
S11309F024E030E0318F208FD501189625E0E2E91C
S1130A00F1E001900D922A95E1F72F813885F501E7
S1130A1037832683D182C082138212821582148284
S1130A2025E030E0318F208FD601189627E0E7E9E2
S1130A30F1E001900D922A95E1F72F813885F601B6
S1130A4037832683F182E082B382A28215821482E4
S1130A5026E030E0318F208FD701189625E0EEE9AB
S1130A60F1E001900D922A95E1F72F813885F70185
S1130A703783268311830083D382C2821582148232
S1130A8027E030E0318F208FD8011896E3EAF1E0B7
S1130A9001900D922A95E1F72F813885F80137836B
S1130AA026832B813C8131832083F382E282158269
S1130AB0148228E030E0318F208FAD81BE811896FA
S1130AC02EE0EAEAF1E001900D922A95E1F72F81F8
S1130AD03885ED81FE81378326831182108213824B
S1130AE012821582148229E030E0318F208FD301E5
S1130AF0189625E0E2E9F1E001900D922A95E1F7DC
S1130B002F813885F30137832683518240821382F3
S1130B101282158214822AE030E0318F208FD201B4
S1130B20189627E0E7E9F1E001900D922A95E1F7A4
S1130B302F813885F20137832683318220827382A4
S1130B406282158214822BE030E0318F208FD10134
S1130B50189625E0EEE9F1E001900D922A95E1F76F
S1130B602F813885F10137832683918380835382D3
S1130B704282158214822CE030E0318F208FDC0118
S1130B801896E6E8F1E001900D922A95E1F72F819D
S1130B903885FC01378326831182108233822282B6
S1130BA0158214822DE030E0318F208F8F8198855B
S1130BB0909323028093220290932502809324022F
S1130BC028960FB6F894DEBF0FBECDBFDF91CF914C
S1130BD01F910F91FF90EF90DF90CF90BF90AF9057
S1130BE09F908F907F906F905F904F903F902F9049
S1130BF008951F93CF93DF930E94AF07C091220201
S1130C00D09123022097C1F010E01F5F2FEF8FEFE8
S1130C1095E0215080409040E1F700C000C043E0DF
S1130C20612FCE0108960E947C070E9496080990C5
S1130C30D881C02D209749F74AE06091060180E0F1
S1130C400E94C9070E949608DF91CF911F910895D1
S1130C50E0912402F09125028081918190932502F4
S1130C608093240208951F93CF93DF93E09124028D
S1130C70F091250280819181892B49F10E942806F7
S1130C800E94AF07809106018F5F80930601C09197
S1130C902202D0912302209791F010E01F5F43E0DD
S1130CA0612FCE0108960E947C070E949608099045
S1130CB0D881C02D00C000C00000209779F74AE019
S1130CC06091060180E00E94C9070E949608DF91A6
S1130CD0CF911F910895E0912402F0912502828121
S1130CE09381909325028093240208951F93CF93B8
S1130CF0DF93E0912402F091250282819381892B74
S1130D0049F10E946B060E94AF0780910601815051
S1130D1080930601C0912202D0912302209791F082
S1130D2010E01F5F43E0612FCE0108960E947C070C
S1130D300E9496080990D881C02D84EA8A95F1F71B
S1130D40209779F74AE06091060180E00E94C90784
S1130D500E949608DF91CF911F910895E09124029B
S1130D60F0912502848195810097B1F0909323023C
S1130D7080932202909325028093240281E0809341
S1130D8006010E94AF078FEF9FE20197F1F700C0C1
S1130D9000000E94F90508953896FF93EF930E948E
S1130DA0240DE0912402F0912502808D918D0F9005
S1130DB00F908530910529F48AE090E00E94CA08DA
S1130DC008958630910529F48BE090E00E94CA08CA
S1130DD008958730910529F48CE090E00E94CA08B8
S1130DE008958A30910521F481E00E94D409089580
S1130DF08B30910521F483E00E94D40908950C9767
S1130E0019F484E00E94D4090895E0912402F09139
S1130E102502868197810097A9F0909323028093FD
S1130E202202909325028093240281E0809306019C
S1130E300E94AF078FEF9FE20197F1F700C0000017
S1130E400E94F905089582958F7080618093001047
S1130E5000C000C000000895E0E0F0E1806B8083F2
S1130E6000C000C0000062956F706061608300C0C4
S1130E7000C00000089560E00E942C0708950F93BD
S1130E801F93CF930E943B07C0E000E012E18C2F38
S1130E900E942307F8011082CF5FC038C1F7CF91B9
S1130EA01F910F910895CF93C0E08C2F0E943F07AC
S1130EB0CF5FC830D1F760E080E00E942C07CF916B
S1130EC0089528E0829FC0011124FC01E059F040FC
S1130ED050E080E8689F400D511D1124DA01B85E8E
S1130EE0485F574E849100C000C000008D93319636
S1130EF0A417B507B9F70895CF92DF92EF92FF9246
S1130F000F931F93CF93DF938C01D62F7C01C42FB3
S1130F10CC0FCC0FCC0FC12CD12C0EC04C2F6D2F6D
S1130F20F70181917F010E94610700C000C00000A9
S1130F30FFEFCF1ADF0AC85FF80101900020E9F73C
S1130F403197E01BF10BCE16DF0640F3DF91CF9112
S1130F501F910F91FF90EF90DF90CF900895E0E004
S1130F60F8E11192E1158CE1F807D9F708958FEAB9
S1130F70809300108FEF9FE20197F1F700C000000B
S1130F8060E080E00E942C070E9453070E94AF0794
S1130F90089590E0FC01EE0FFF1FEE0FFF1FE80F16
S1130FA0F91FE859FC4F50E080E8689F400D511D3F
S1130FB01124DA01B85E4B5F574E849100C000C023
S1130FC000008D933196A417B507B9F70895962FAD
S1130FD0969596959695E82FF0E080E8989FE00D19
S1130FE0F11D1124F85E677081E090E002C0880F63
S1130FF0991F6A95E2F79081892B80830895962F33
S1131000969596959695E82FF0E080E8989FE00DE8
S1131010F11D1124F85E677081E090E002C0880F32
S1131020991F6A95E2F780959081892380830895BA
S11310306F927F928F929F92AF92BF92CF92DF92E4
S1131040EF92FF920F931F93CF93DF93E82FF0E07B
S1131050E038F10514F0EFE7F0E01E2F862F90E062
S11310608034910514F08FE390E0D82F99274C0138
S1131070820E911C20E4821691042CF00F2EFFE3C3
S11310808F2E912CF02D88159905D4F02EC0C12FE8
S1131090002329F06D2F8C2F0E94FF0704C06D2FB1
S11310A08C2F0E94E707CF5F8C2F90E08E159F0551
S11310B07CF3DF5F8D2F90E0881599055CF015C0F7
S11310C05F01BB246501C40ED11C0F2EFFE76F2EF8
S11310D0F02D712C760180E8C816D10414F0E62CAA
S11310E0F72CAE14BF049CF2E4CFDF91CF911F9193
S11310F00F91FF90EF90DF90CF90BF90AF909F90B3
S11311008F907F906F9008958295982F9C7C292FC3
S113111026952695982F9373990F990F922B892FC3
S11311208A7A86959575990F892B0895CF92DF92C7
S1131130EF92FF920F931F93CF93DF930F2EC12C47
S1131140FCE1DF2EF02DD0E00F2EE12CF2E1FF2E9A
S1131150F02D8D2F0E943B078601C0E08C2F0E944A
S11311602307F80182918F010E948408F70180838C
S1131170CF5FC03899F7DF5FF0E8CF1AD108D830D5
S113118041F7DF91CF911F910F91FF90EF90DF9086
S1131190CF900895AF92BF92DF92EF92FF920F9398
S11311A01F93CF93DF93CDB7DEB72C970FB6F89488
S11311B0DEBF0FBECDBF5C010F2EF6E0DF2EF02D9B
S11311C089EF90E00197F1F700C000000E94AD03A1
S11311D0182F0E94BD03682F812F0E947A03BA82C0
S11311E0A9826C838D830E948E038E830E94910357
S11311F08F830E9495030E94590388870E94A1034C
S11312000E9459038987DB82E980FA800D2D1C81B5
S11312102D813E814F815885682F7A858B859C85E9
S11312200E94070383ED90E30197F1F700C00000EB
S11312300E948E03882321F22C960FB6F894DEBF09
S11312400FBECDBFDF91CF911F910F91FF90EF9013
S1131250DF90BF90AF9008950F931F93CF93DF93C8
S1131260CDB7DEB727970FB6F894DEBF0FBECDBF5C
S1131270632F70E061507109822F90E000E010E06C
S113128023E030E043E050E001970E9418082796DD
S11312900FB6F894DEBF0FBECDBFDF91CF911F9183
S11312A00F910895292FFA01808190E0861B9109FE
S11312B001960397D8F4818190E0871B9109322F1E
S11312C03695831B9109AC0122F444275527481B0A
S11312D0590B30E0421753075CF465E070E00E945C
S11312E07E0B8481680F648381E0089580E0089513
S11312F080E00895CF92DF92EF92FF920F931F93B5
S1131300CF93DF93EC01CB01BA0168017901288105
S11313103B81432F330F550BFA01E20FF11D498135
S11313202C81022E000C330B8901040F111DE138AE
S1131330F105A0F020E4288320E229831C8221E027
S1131340E138F1050CF420E03D81230F2D832F2F8C
S1131350221F2227221F3E81230F2E83AE010E94CB
S11313605209811107C0AE01C701B6010E9452099A
S1131370882319F08B8181958B830134110518F032
S11313808C8181958C8398818B81890F8883998145
S11313908C81890F8983DF91CF911F910F91FF90E9
S11313A0EF90DF90CF9008952F923F924F925F92EB
S11313B06F927F928F929F92AF92BF92CF92DF9261
S11313C0EF92FF920F931F93CF93DF93CDB7DEB7C6
S11313D0A4970FB6F894DEBF0FBECDBF182F88EBCD
S11313E091E09F938F930E94240D84E0898390E27F
S11313F09A8381E08B832AE02C833BE73D839E83A1
S11314008F832887998790E49A8793E09B871C872A
S11314108D871E861F860F900F900F2EF6EC6F2E71
S1131420F1E07F2EF02D0F2EF7ED4F2EF1E05F2E21
S1131430F02D0F2EF9EECF2EF1E0DF2EF02D4E0120
S113144020E2820E911C5E013BE1A30EB11C7E01E1
S113145080E1E80EF11C0F2EFAE32F2E312CF02D33
S11314600E9453070E94AF070E94A103182F092F5F
S11314700E9495030F931F939F938F937F926F9274
S11314800E94240D8E811F928F938A811F928F93C5
S11314905F924F920E94240D0E949503682FCE0103
S11314A001960E94DF0A0E94A103682FCE010596CF
S11314B00E94DF0A69817A818B819C810E94D40A0F
S11314C06D817E818F8198850E94D40A0D811E8151
S11314D02F81388549815A816B817C81CE0109969F
S11314E00E947A0929853A854B855C856D857E85C0
S11314F08F850E942C0983EC99E00197F1F700C0D5
S113150000008E851F928F93DF92CF929F928F92CD
S11315100E946A0D8F851F928F93DF92CF92BF92A4
S1131520AF920E946A0DB401C7010E94D20CF70168
S113153001900020E9F7319731822082B501C7017B
S11315400E94C70C43E050E060E070E0C7010E94D5
S11315507C070E9496088FE097E20197F1F700C09C
S113156000000E948E030FB6F894DEBF0FBECDBFFD
S1131570892B09F475CFA4960FB6F894DEBF0FBE7D
S1131580CDBFDF91CF911F910F91FF90EF90DF902E
S1131590CF90BF90AF909F908F907F906F905F900F
S11315A04F903F902F9008950F93362F672F00E0B0
S11315B0292F482F832F0E9418080F910895FC01AA
S11315C0438120E430E0241B3109629FA001639F22
S11315D0500D1124552314F441505F4FFC015183E5
S11315E0089580EB87BB81E58DB9C69808958FB9BE
S11315F0779BFECF8FB10895159BFECF83B90895D5
S1131600179BFECF83B108959CBF80B988E181B94F
S11316108EE88CBF60E07BE08CEF9AE00E94D90CEE
S113162008958FB780688FBF8A98D09A8FEF8ABB4E
S1131630319A84B38F6084BB8F9A8E9A85B7806801
S113164085BF80B7806280BF8FE190E00E94040B69
S11316508CEE91E00E943A0D0E94CD030E94B707E0
S11316600E94C1020E9438040E94F9050E94BD0331
S113167065EA70E00E9463038B30910564F00E9478
S113168076062FEF8FEF92E0215080409040E1F7F3
S113169000C000C0EBCF863F9F4F64F40E94330626
S11316A08FEF9FEF22E0815090402040E1F700C08F
S11316B000C0DCCF0E949103892B81F088EF91E078
S11316C00E943A0D0E94AE068FEF9FE727E08150FB
S11316D090402040E1F700C00000C8CF0E948E0374
S11316E0892B21F20E9405078FEF9FE727E08150A5
S11316F090402040E1F700C00000B8CF97FB072ED0
S113170016F4009407D077FD09D00E94920B07FCD1
S113171005D03EF4909581959F4F089570956195FD
S11317207F4F0895AA1BBB1B51E107C0AA1FBB1F13
S1131730A617B70710F0A61BB70B881F991F5A9559
S1131740A9F780959095BC01CD0108950F931F933F
S1131750CF93DF938230910510F482E090E0E09122
S11317602802F091290220E030E0A0E0B0E03097B8
S113177019F1408151810281138148175907C8F03A
S11317808417950769F4109731F012960C93129709
S113179013961C9327C0009328021093290222C099
S11317A02115310519F04217530718F49A01BD01A8
S11317B0EF01DF01F801DBCF21153105F9F0281B1A
S11317C0390B2430310580F48A819B8161157105C0
S11317D021F0FB019383828304C0909329028093B8
S11317E02802FE01329644C0FE01E20FF31F8193EA
S11317F0919322503109398328833AC020912602DB
S113180030912702232B41F42091020130910301EE
S11318103093270220932602209100013091010188
S11318202115310541F42DB73EB740910401509183
S11318300501241B350BE0912602F0912702E217E3
S1131840F307A0F42E1B3F0B2817390778F0AC01DF
S11318504E5F5F4F2417350748F04E0F5F1F5093BC
S11318602702409326028193919302C0E0E0F0E0C6
S1131870CF01DF91CF911F910F910895CF93DF9303
S1131880009709F481C0FC01329713821282A0915F
S11318902802B0912902109781F420813181820FAE
S11318A0931F20912602309127022817390751F5FA
S11318B0F0932702E093260267C0ED0120E030E0B8
S11318C0CE17DF0740F44A815B819E014115510523
S11318D0F1F0EA01F5CFD383C28340815181840FB3
S11318E0951FC817D90759F488819981840F951FCA
S11318F00296918380838A819B81938382832115BD
S1131900310529F4F0932902E09328023DC0E9014E
S1131910FB83EA8349915991C40FD51FEC17FD0746
S113192061F480819181840F951F0296E901998366
S11319308883828193819B838A83E0E0F0E012961E
S11319408D919C911397009719F0FD01DC01F7CF5D
S11319508D919C9111979D012E5F3F4F820F931F94
S113196020912602309127022817390769F430970D
S113197029F4109229021092280202C013821282C2
S1131980B0932702A0932602DF91CF910895FB0123
S1131990DC010D900020E9F7119701900D920020D1
S11319A0E1F70895FB01DC0101900D920020E1F7BD
S11319B008950F931F93CF93DF93009731F461152C
S11319C0710519F480E090E03AC08B01EC016EE0FF
S11319D070E081E090E00E946D0FFC01892B91F38F
S11319E080E883830115110571F01387028781E86C
S11319F0838380912A0290912B02892B21F4F09306
S1131A002B02E0932A022097C9F0D187C0878381F3
S1131A108260838380912C0290912D02892B71F432
S1131A20F0932D02E0932C0280912E0290912F02CC
S1131A30892B21F4F0932F02E0932E02CF01DF9142
S1131A40CF911F910F910895A0E0B0E0EAE2FDE08C
S1131A500C945010AE014B5F5F4FFA01619171918C
S1131A60AF0180912C0290912D020E948C0DE2E036
S1131A700C946C100F931F93CF93DF93E0912C027F
S1131A80F0912D02238121FF1BC08C01D0E0C0E026
S1131A90F80181918F0160912C0270912D02DB017C
S1131AA01896ED91FC911997882331F00995892BAB
S1131AB079F3DFEFCFEFECCF8AE00995892B19F0AA
S1131AC08FEF9FEF02C08D2F9C2FDF91CF911F913D
S1131AD00F910895AEE0B0E0E0E7FDE00C944E1005
S1131AE00D891E8986E08C831A8309838FEF9FE713
S1131AF09E838D83AE01475E5F4F6F89788DCE01E3
S1131B0001960E948C0DEF81F885E00FF11F108281
S1131B102E96E4E00C946A10ABE0B0E0E2E9FDE05C
S1131B200C9440106C017B018A01FC01178216821F
S1131B30838181FFCCC1CE0101963C01F6019381E2
S1131B40F70193FD859193FF81917F01882309F427
S1131B50BAC1853239F493FD859193FF81917F0158
S1131B60853229F4B60190E00E94A60FE7CF912CAC
S1131B70212C312CFFE1F315D8F08B3279F038F4B5
S1131B80803279F08332A1F4232D20611DC08D327F
S1131B9061F0803369F4232D216016C0832D8260A7
S1131BA0382EE32DE4603E2E2AC0F32DF8601DC0CC
S1131BB037FC2DC020ED280F2A3040F08E32B9F4C6
S1131BC036FC81C1232D2064322E19C036FE06C096
S1131BD08AE0989E200D1124922E11C0EAE02E9ED8
S1131BE0200D1124222EF32DF0623F2E08C08C36D6
S1131BF021F4832D8068382E02C0883641F4F70121
S1131C0093FD859193FF81917F018111B3CF982F2B
S1131C109F7D9554933028F40C5F1F4F9FE3998365
S1131C200DC0833631F0833771F0833509F059C024
S1131C3021C0F801808189830E5F1F4F882483941B
S1131C40912C530113C02801F2E04F0E511CF801EE
S1131C50A080B18036FE03C0692D70E002C06FEF32
S1131C607FEFC5010E949B0F4C018201F32DFF778A
S1131C703F2E16C0280122E0420E511CF801A0801C
S1131C80B18036FE03C0692D70E002C06FEF7FEFB4
S1131C90C5010E94890F4C01F32DF0683F2E82018B
S1131CA033FC1BC0822D90E088169906B0F4B6016F
S1131CB080E290E00E94A60F2A94F4CFF50137FC4D
S1131CC0859137FE81915F01B60190E00E94A60FD5
S1131CD021102A9421E0821A91088114910471F749
S1131CE0E8C0843611F0893641F5F80137FE07C0A3
S1131CF060817181828193810C5F1F4F08C0608174
S1131D007181072E000C880B990B0E5F1F4FF32D6A
S1131D10FF763F2E97FF09C0909580957095619549
S1131D207F4F8F4F9F4FF0683F2E2AE030E0A30192
S1131D300E94E20F882E861845C0853731F4232D82
S1131D402F7EB22E2AE030E025C0932D997FB92E44
S1131D508F36C1F018F4883579F0B5C0803719F0A2
S1131D60883721F0B0C0E92FE061BE2EB4FE0DC06B
S1131D70FB2DF460BF2E09C034FE0AC0292F266053
S1131D80B22E06C028E030E005C020E130E002C0F9
S1131D9020E132E0F801B7FE07C0608171818281E1
S1131DA093810C5F1F4F06C06081718180E090E0D9
S1131DB00E5F1F4FA3010E94E20F882E8618FB2D91
S1131DC0FF773F2E36FE0DC0232D2E7FA22E8914C1
S1131DD058F434FE0BC032FC09C0832D8E7EA82E2D
S1131DE005C0B82CA32C03C0B82C01C0B92CA4FE88
S1131DF00FC0FE01E80DF11D8081803321F49A2D7E
S1131E00997EA92E09C0A2FE06C0B394B39404C05F
S1131E108A2D867809F0B394A3FC11C0A0FE06C0F5
S1131E20B21488F4280C922C9B180EC0B21460F4DF
S1131E30B60180E290E00E94A60FB394F7CFB214EB
S1131E4018F42B1802C0982C212CA4FE10C0B60143
S1131E5080E390E00E94A60FA2FE17C0A1FC03C07D
S1131E6088E790E002C088E590E0B6010CC08A2DB6
S1131E70867859F0A1FE02C08BE201C080E2A7FC83
S1131E808DE2B60190E00E94A60F891438F4B601E1
S1131E9080E390E00E94A60F9A94F7CF8A94F3010E
S1131EA0E80DF11D8081B60190E00E94A60F81101B
S1131EB0F5CF222009F442CEB60180E290E00E94E0
S1131EC0A60F2A94F6CFF6018681978102C08FEF80
S1131ED09FEF2B96E2E10C945C100F931F93CF932A
S1131EE0DF93869F8001879F100D969F100D11240C
S1131EF0C8010E94A60BEC01009729F0A80160E03C
S1131F0070E00E94940FCE01DF91CF911F910F9149
S1131F100895FC010590615070400110D8F7809538
S1131F2090958E0F9F1F0895DC0101C06D93415061
S1131F305040E0F70895FC01615070400190011099
S1131F40D8F7809590958E0F9F1F08950F931F9338
S1131F50CF93DF93FB01238121FD03C08FEF9FEF1C
S1131F602CC022FF16C04681578124813581421737
S1131F70530744F4A081B1819D012F5F3F4F31830A
S1131F8020838C93268137812F5F3F4F37832683AD
S1131F9014C08B01EC01FB010084F185E02D09954F
S1131FA0892BE1F6D80116968D919C91179701968D
S1131FB017969C938E931697CE01DF91CF911F9124
S1131FC00F910895FA01AA27283051F1203181F1A7
S1131FD0E8946F936E7F6E5F7F4F8F4F9F4FAF4F2D
S1131FE0B1E03ED0B4E03CD0670F781F891F9A1F40
S1131FF0A11D680F791F8A1F911DA11D6A0F711DF4
S1132000811D911DA11D20D009F468943F912AE0FF
S1132010269F11243019305D3193DEF6CF010895E7
S1132020462F4770405D4193B3E00FD0C9F7F6CF18
S1132030462F4F70405D4A3318F0495D31FD4052E0
S1132040419302D0A9F7EACFB4E0A6959795879576
S113205077956795BA95C9F7009761057105089555
S11320609B01AC010A2E0694579547953795279501
S1132070BA95C9F7620F731F841F951FA01D089599
S11320802F923F924F925F926F927F928F929F9284
S1132090AF92BF92CF92DF92EF92FF920F931F9372
S11320A0CF93DF93CDB7DEB7CA1BDB0B0FB6F89423
S11320B0DEBF0FBECDBF09942A88398848885F8463
S11320C06E847D848C849B84AA84B984C884DF80D4
S11320D0EE80FD800C811B81AA81B981CE0FD11DB8
S11320E00FB6F894DEBF0FBECDBFED010895F8948E
S10520F0FFCF1C
S11320F2000030022000010A0A4D435032353135C6
S1132102206973204E4F5420696E20636F6E666996
S11321126775726174696F6E206D6F6465206166A4
S11321227465722072657365742021004D594252A0
S113213252203D2025640A000A0A4D4350323531AB
S113214235206973204E4F5420696E206E6F726D74
S1132152616C206D6F6465202100506C61792050A0
S1132162696E6700506C617920506F6E67004F7022
S113217274696F6E7300486967682053636F726590
S1132182730045617379004D656469756D0048613A
S113219272640052616E646F6D00496E766572748A
S11321A22053637265656E0068656C6C6C6F2067A2
S11321B2616D65727300536C69646572203D2025FC
S11321C2642C2025640A00706C6179657273203D69
S11321D22025642C2025640A002564000A0A52750D
S11321E26E206D61696E3A00627574746F6E207050
S10B21F272657373656400005B
S9030000FC
