:100000000C94A2020C94BF020C94BF020C94BF0289
:100010000C94BF020C94BF020C94BF020C94BF025C
:100020000C94BF020C94BF020C94BF020C94BF024C
:100030000C94BF020C94BF020C94BF020C94BF023C
:100040000C94BF020C94BF020C94BF020C94BF022C
:100050000C94BF020C94BF020C94BF020C94BF021C
:100060000C94BF020C94BF020C94BF020C94BF020C
:10007000000000000000000000065F5F06000000B6
:100080000007070007070000147F7F147F7F14001C
:10009000242E6B6B3A120000466630180C66620024
:1000A000307A4F5D377A48000407030000000000F3
:1000B000001C3E63410000000041633E1C00000044
:1000C000082A3E1C1C3E2A0808083E3E080800007C
:1000D00000A0E06000000000080808080808000010
:1000E00000006060000000006030180C0603010092
:1000F0003E7F594D7F3E000042427F7F40400000DE
:10010000627359496F660000226349497F360000D7
:10011000181C16137F7F1000276745457D390000A6
:100120003C7E4B4979300000036371190F070000D2
:10013000367F49497F360000064F49693F1E00005F
:1001400000006C6C0000000000A0EC6C00000000DF
:10015000081C366341000000141414141414000029
:10016000004163361C080000020351590F060000CD
:100170003E7F415D5D1F1E007C7E13137E7C000070
:10018000417F7F49497F36001C3E63414163220025
:10019000417F7F41637F1C00417F7F495D41630058
:1001A000417F7F491D0103001C3E63415173720072
:1001B0007F7F08087F7F000000417F7F41000000B3
:1001C000307040417F3F0100417F7F081C77630012
:1001D000417F7F41406070007F7F060C067F7F007B
:1001E0007F7F060C187F7F001C3E6341633E1C002E
:1001F000417F7F49090F06001E3F21717F5E00008D
:10020000417F7F19396F460026674D597B320000C8
:1002100003417F7F410300007F7F40407F7F0000DC
:100220001F3F60603F1F00007F7F3018307F7F00DE
:1002300063771C081C776300074F78784F0700002E
:100240006773594D47637100007F7F414100000093
:100250000103060C183060000041417F7F00000060
:10026000080C0603060C0800808080808080808057
:100270000000030704000000207454543C78400040
:10028000413F7F44447C3800387C44446C28000063
:10029000307848493F7F4000387C54545C18000057
:1002A000487E7F490302000098BCA4A4F87C0400A7
:1002B000417F7F08047C780000447D7D4000000081
:1002C00040C484FD7D000000417F7F10386C4400F5
:1002D00000417F7F400000007C7C0C180C7C780083
:1002E0007C7C04047C780000387C44447C3800002A
:1002F00084FCF8A4243C1800183C24A4F8FC8400D6
:10030000447C78441C180000485C54547424000059
:1003100000043E7F442400003C7C40403C7C400084
:100320001C3C60603C1C00003C7C6030607C3C00FD
:10033000446C3810386C44009CBCA0A0FC7C0000CD
:100340004C64745C4C64000008083E774141000036
:1003500000000077770000004141773E0808000068
:1003600002030103020301003030FC78303078FCD6
:1003700030302038FE38200838FE38087CD6FEC6DB
:100380007C000000000000000000000000000000F1
:10039000000000000000000000000000000000005D
:1003A000000000000000000000000000000000004D
:1003B000000000000000000000000000000000003D
:1003C000000000000000000000000000000000002D
:1003D000000000000000000000000000000000001D
:1003E000000000000000000000000000000000000D
:1003F00000000000000000000000000000000000FD
:1004000000000000000000000000000000000000EC
:1004100000000000000000000000000000000000DC
:1004200000000000000000000000000000000000CC
:1004300000000000000000000000000000000000BC
:1004400000000000000000000000000000000000AC
:10045000000000000000000000000000000000009C
:10046000000000000000000000000000000000008C
:10047000000000000000000000000000000000007C
:10048000000000000000000000000000000000006C
:10049000000000000000000000000000000000005C
:1004A000000000000000000000000000000000004C
:1004B000000000000000000000000000000000003C
:1004C000000000000000000000000000000000002C
:1004D000000000000000000000000000000000001C
:1004E000000000000000000000000000000000000C
:1004F00000000000000000000000000000000000FC
:1005000000000000000000000000000000000000EB
:1005100000000000000000000000000000000000DB
:1005200000000000000000000000000000000000CB
:1005300000000000000000000000000000000000BB
:100540000000000011241FBECFEFD4E0DEBFCDBFFE
:1005500011E0A0E0B1E0E6E9F6E102C005900D92FD
:10056000A436B107D9F721E0A4E6B1E001C01D929D
:10057000AF38B207E1F70E94BF050C94490B0C9409
:100580000000FC010FB6F89460918B0170918C0112
:1005900080918D0190918E010FBE309721F0608384
:1005A000718382839383089586B38170089586B39F
:1005B0008695817008958D9A8EB588608EBD8EB5B2
:1005C00081608EBD8EB58D7F8EBD8EB58B7F8EBDCD
:1005D0008FB580648FBD81E090E09BBD8ABD08959A
:1005E0006F927F928F929F92AF92BF92CF92DF9243
:1005F000EF92FF920F931F93CF93DF9388E190E0E8
:100600000E941D068C0188E190E00E941D064C01AD
:1006100088E190E00E941D065C0188E190E00E9464
:100620001D06EC0188E190E00E941D063C0188E176
:1006300090E00E941D066C0188E190E00E941D067A
:100640007C0188E190E00E941D06D80118962AE0FE
:10065000EAE0F1E001900D922A95E1F7F8011782A6
:100660001682918280821382128215821482D401B2
:10067000189628E0E4E1F1E001900D922A95E1F767
:10068000F40117821682B182A0821383028315823D
:100690001482D50118962CE0ECE1F1E001900D9266
:1006A0002A95E1F7F50117821682D183C0839382E0
:1006B000828215821482DE0118962BE0E8E2F1E0D6
:1006C00001900D922A95E1F71F821E8219821882ED
:1006D000BB82AA827D826C82D301189625E0E3E377
:1006E000F1E001900D922A95E1F7F301D783C683DB
:1006F000D182C0821382128215821482D60118968A
:1007000027E0E8E3F1E001900D922A95E1F7F60188
:10071000D783C683F182E082D382C282158214829B
:10072000D701189625E0EFE3F1E001900D922A95AC
:10073000E1F7F701D783C68391838083F382E28256
:1007400015821482DC01189627E0E4E4F1E00190C0
:100750000D922A95E1F7FC01D783C683118210829E
:10076000F382E2821582148210937E0100937D0150
:100770001093800100937F01DF91CF911F910F9122
:10078000FF90EF90DF90CF90BF90AF909F908F90B1
:100790007F906F9008951F93CF93DF9380916401B2
:1007A0001F928F938BE491E09F938F930E94E507B4
:1007B0006AE0809164010E94340580E00E948E0509
:1007C00064E180E00E943405C0917D01D0917E01FA
:1007D0000F900F900F900F90209709F110E0CE012D
:1007E00008960E946C050990D881C02D1F5F6EE1AC
:1007F000812F0E9434052FEF8FEF95E0215080402C
:100800009040E1F700C000C02FEF8FE791E021504A
:1008100080409040E1F700C000C0209701F7DF91D1
:10082000CF911F910895E0917F01F0918001808127
:1008300091819093800180937F0108951F93CF93BE
:10084000DF930E94130480E00E94130581E00E9460
:10085000130582E00E94130583E00E941305809136
:1008600064011F928F93CBE4D1E0DF93CF930E947A
:10087000E507809164018F5F809364011F928F93DD
:10088000DF93CF930E94E507809164011F928F93BD
:10089000DF93CF930E94E50764E180E00E94340576
:1008A000C0917D01D0917E018DB79EB70C960FB699
:1008B000F8949EBF0FBE8DBF209709F110E0CE01C6
:1008C00008960E946C050990D881C02D1F5F6EE1CB
:1008D000812F0E9434059FEF2FEF85E0915020403B
:1008E0008040E1F700C000C09FEF2FE781E091500A
:1008F00020408040E1F700C000C0209701F76AE087
:10090000809164010E94340580E00E948E05DF9191
:10091000CF911F910895E0917F01F0918001828134
:1009200093819093800180937F0108951F93CF93CB
:10093000DF930E948B0480E00E94130581E00E94F7
:10094000130582E00E94130583E00E941305809145
:1009500064011F928F93CBE4D1E0DF93CF930E9489
:10096000E507809164018150809364011F928F9309
:10097000DF93CF930E94E507809164011F928F93CC
:10098000DF93CF930E94E50764E180E00E94340585
:10099000C0917D01D0917E018DB79EB70C960FB6A8
:1009A000F8949EBF0FBE8DBF209709F110E0CE01D5
:1009B00008960E946C050990D881C02D1F5F6EE1DA
:1009C000812F0E9434059FEF2FEF85E0915020404A
:1009D0008040E1F700C000C09FEF2FE781E0915019
:1009E00020408040E1F700C000C0209701F76AE096
:1009F000809164010E94340580E00E948E05DF91A1
:100A0000CF911F910895ECECF4E03197F1F700C01D
:100A10000000806B80930010089582958F70806134
:100A20008093001008950F931F93CF930E940305A6
:100A3000C0E000E012E18C2F0E940D05F801108249
:100A4000CF5FC038C1F7CF911F910F910895CF9319
:100A5000C0E08C2F0E941305CF5FC830D1F780E033
:100A60000E940305CF910895CF93C62F0E940305DE
:100A70008C2F0E940D05CF9108958FEA809300106E
:100A80008FEF9FE20197F1F700C0000060E080E087
:100A90000E9434050E9427050895282F30E0F901AF
:100AA000EE0FFF1FEE0FFF1FEE0FFF1FE059F0408C
:100AB000220F331F220F331F220F331F28583040BD
:100AC000A0E0B2E1949100C000C000009C93319678
:100AD000E217F307B9F70895EF92FF920F931F9370
:100AE000CF93DF938C017C01C0E0D0E006C0F7011A
:100AF00081917F010E944D052196F801019000200F
:100B0000E9F73197E01BF10BCE17DF0780F3DF9198
:100B1000CF911F910F91FF90EF90089590E09C016D
:100B2000220F331F220F331F820F931F20E030E06C
:100B3000A0E0B2E1F901E80FF91FE859FC4FE49198
:100B400000C000C00000EC932F5F3F4F25303105FF
:100B500089F70895159BFECF83B90895179BFECFA3
:100B600083B108959CBF80B988E181B98EE88CBFBC
:100B70006EEA75E08AEA95E00E949A070895CF939D
:100B8000DF9300D000D0CDB7DEB780E090E00E94C8
:100B9000C10269837A838B839C83CE0101960E9474
:100BA000C102CB010E948F07D09A8FEF8ABB319A86
:100BB00084B38F6084BB8F9A8E9A85B7806885BF17
:100BC00080B7806280BF8FE190E00E94B2050E94F2
:100BD000DB020E943D050E948A079F938F938EE45B
:100BE00091E09F938F930E94E5070E94F0020E947C
:100BF000CB030F900F900F900F900E94D702892B7C
:100C000061F00E9496042FEF8FEF92E02150804018
:100C10009040E1F700C000C0F0CF0E94D402892BC1
:100C200061F30E941E042FEF8FEF92E0215080406D
:100C30009040E1F700C000C0E0CF0F931F93CF9327
:100C4000DF938230910510F482E090E0E09183011F
:100C5000F091840120E030E0A0E0B0E0309719F19D
:100C6000408151810281138148175907C8F08417C8
:100C7000950769F4109731F012960C93129713961A
:100C80001C9327C0009383011093840122C0211577
:100C9000310519F04217530718F49A01BD01EF010D
:100CA000DF01F801DBCF21153105F9F0281B390BE5
:100CB0002430310580F48A819B816115710521F012
:100CC000FB019383828304C090938401809383010A
:100CD000FE01329644C0FE01E20FF31F819391930F
:100CE00022503109398328833AC020918101309103
:100CF0008201232B41F420910201309103013093B2
:100D00008201209381012091000130910101211580
:100D1000310541F42DB73EB74091040150910501D2
:100D2000241B350BE0918101F0918201E217F3075A
:100D3000A0F42E1B3F0B2817390778F0AC014E5F4B
:100D40005F4F2417350748F04E0F5F1F5093820105
:100D5000409381018193919302C0E0E0F0E0CF01E4
:100D6000DF91CF911F910F910895CF93DF9300975B
:100D700009F481C0FC01329713821282A091830191
:100D8000B0918401109781F420813181820F931FEB
:100D900020918101309182012817390751F5F09394
:100DA0008201E093810167C0ED0120E030E0CE17C1
:100DB000DF0740F44A815B819E0141155105F1F046
:100DC000EA01F5CFD383C28340815181840F951FFF
:100DD000C817D90759F488819981840F951F029605
:100DE000918380838A819B8193838283211531053E
:100DF00029F4F0938401E09383013DC0E901FB8372
:100E0000EA8349915991C40FD51FEC17FD0761F48E
:100E100080819181840F951F0296E90199838883CF
:100E2000828193819B838A83E0E0F0E012968D912A
:100E30009C911397009719F0FD01DC01F7CF8D917C
:100E40009C9111979D012E5F3F4F820F931F209120
:100E50008101309182012817390769F4309729F40C
:100E6000109284011092830102C013821282B09307
:100E70008201A0938101DF91CF9108958F929F927B
:100E8000AF92BF92CF92DF92EF92FF92CF93DF9318
:100E9000EC01688179818A819B81611571058105E9
:100EA000910521F464E279ED8BE597E02DE133EFD4
:100EB00041E050E00E94AF0A49015A019B01AC0198
:100EC000A7EAB1E40E94CE0A6B017C01ACEEB4EF5C
:100ED000A50194010E94DC0ADC01CB018C0D9D1D53
:100EE000AE1DBF1DB7FF03C00197A109B04888839D
:100EF0009983AA83BB839F77DF91CF91FF90EF9077
:100F0000DF90CF90BF90AF909F908F9008950E94F8
:100F10003E07089586E091E00E943E070895A0E014
:100F2000B0E08093060190930701A0930801B0936D
:100F3000090108950F931F93CF93DF93009731F426
:100F40006115710519F480E090E03AC08B01EC0165
:100F50006EE070E081E090E00E94DC09FC01892BEA
:100F600091F380E883830115110571F013870287DF
:100F700081E883838091850190918601892B21F4FA
:100F8000F0938601E09385012097C9F0D187C0874F
:100F90008381826083838091870190918801892B6E
:100FA00071F4F0938801E093870180918901909119
:100FB0008A01892B21F4F0938A01E0938901CF0102
:100FC000DF91CF911F910F910895A0E0B0E0EBEE7B
:100FD000F7E00C94F10AAE014B5F5F4FFA016191AB
:100FE0007191AF0180918701909188010E94FB0768
:100FF000E2E00C940D0BABE0B0E0E1E0F8E00C9423
:10100000E10A6C017B018A01FC011782168283814F
:1010100081FFCCC1CE0101963C01F6019381F7011D
:1010200093FD859193FF81917F01882309F4BAC1D3
:10103000853239F493FD859193FF81917F0185324B
:1010400029F4B60190E00E94150AE7CF912C212CDB
:10105000312CFFE1F315D8F08B3279F038F480327F
:1010600079F08332A1F4232D20611DC08D3261F00F
:10107000803369F4232D216016C0832D8260382EC1
:10108000E32DE4603E2E2AC0F32DF8601DC037FC2E
:101090002DC020ED280F2A3040F08E32B9F436FCF6
:1010A00081C1232D2064322E19C036FE06C08AE08D
:1010B000989E200D1124922E11C0EAE02E9E200D44
:1010C0001124222EF32DF0623F2E08C08C3621F41D
:1010D000832D8068382E02C0883641F4F70193FDD5
:1010E000859193FF81917F018111B3CF982F9F7DCF
:1010F0009554933028F40C5F1F4F9FE399830DC0E4
:10110000833631F0833771F0833509F059C021C03F
:10111000F801808189830E5F1F4F88248394912C6E
:10112000530113C02801F2E04F0E511CF801A080BA
:10113000B18036FE03C0692D70E002C06FEF7FEF13
:10114000C5010E940A0A4C018201F32DFF773F2E50
:1011500016C0280122E0420E511CF801A080B18087
:1011600036FE03C0692D70E002C06FEF7FEFC5014E
:101170000E94F8094C01F32DF0683F2E820133FCE8
:101180001BC0822D90E088169906B0F4B60180E26B
:1011900090E00E94150A2A94F4CFF50137FC85915E
:1011A00037FE81915F01B60190E00E94150A21107F
:1011B0002A9421E0821A91088114910471F7E8C001
:1011C000843611F0893641F5F80137FE07C0608199
:1011D0007181828193810C5F1F4F08C06081718192
:1011E000072E000C880B990B0E5F1F4FF32DFF7617
:1011F0003F2E97FF09C090958095709561957F4F20
:101200008F4F9F4FF0683F2E2AE030E0A3010E94ED
:10121000510A882E861845C0853731F4232D2F7E3C
:10122000B22E2AE030E025C0932D997FB92E8F365B
:10123000C1F018F4883579F0B5C0803719F08837D7
:1012400021F0B0C0E92FE061BE2EB4FE0DC0FB2D31
:10125000F460BF2E09C034FE0AC0292F2660B22ECA
:1012600006C028E030E005C020E130E002C020E107
:1012700032E0F801B7FE07C06081718182819381FD
:101280000C5F1F4F06C06081718180E090E00E5FAF
:101290001F4FA3010E94510A882E8618FB2DFF774D
:1012A0003F2E36FE0DC0232D2E7FA22E891458F41A
:1012B00034FE0BC032FC09C0832D8E7EA82E05C0E3
:1012C000B82CA32C03C0B82C01C0B92CA4FE0FC0AD
:1012D000FE01E80DF11D8081803321F49A2D997E65
:1012E000A92E09C0A2FE06C0B394B39404C08A2DEF
:1012F000867809F0B394A3FC11C0A0FE06C0B21416
:1013000088F4280C922C9B180EC0B21460F4B6011D
:1013100080E290E00E94150AB394F7CFB21418F45B
:101320002B1802C0982C212CA4FE10C0B60180E31B
:1013300090E00E94150AA2FE17C0A1FC03C088E736
:1013400090E002C088E590E0B6010CC08A2D867856
:1013500059F0A1FE02C08BE201C080E2A7FC8DE241
:10136000B60190E00E94150A891438F4B60180E3B2
:1013700090E00E94150A9A94F7CF8A94F301E80D41
:10138000F11D8081B60190E00E94150A8110F5CF11
:10139000222009F442CEB60180E290E00E94150AB4
:1013A0002A94F6CFF6018681978102C08FEF9FEFD6
:1013B0002B96E2E10C94FD0A0F931F93CF93DF93DA
:1013C000869F8001879F100D969F100D1124C801E4
:1013D0000E941D06EC01009729F0A80160E070E072
:1013E0000E94030ACE01DF91CF911F910F910895C2
:1013F000FC010590615070400110D8F780959095E0
:101400008E0F9F1F0895DC0101C06D934150504025
:10141000E0F70895FC016150704001900110D8F789
:10142000809590958E0F9F1F08950F931F93CF93D4
:10143000DF93FB01238121FD03C08FEF9FEF2CC0C1
:1014400022FF16C0468157812481358142175307F8
:1014500044F4A081B1819D012F5F3F4F31832083F0
:101460008C93268137812F5F3F4F3783268314C0AB
:101470008B01EC01FB010084F185E02D0995892B9E
:10148000E1F6D80116968D919C91179701961796C3
:101490009C938E931697CE01DF91CF911F910F9160
:1014A0000895FA01AA27283051F1203181F1E894FA
:1014B0006F936E7F6E5F7F4F8F4F9F4FAF4FB1E047
:1014C0003ED0B4E03CD0670F781F891F9A1FA11D42
:1014D000680F791F8A1F911DA11D6A0F711D811D43
:1014E000911DA11D20D009F468943F912AE0269F08
:1014F00011243019305D3193DEF6CF010895462F67
:101500004770405D4193B3E00FD0C9F7F6CF462F47
:101510004F70405D4A3318F0495D31FD40524193B0
:1015200002D0A9F7EACFB4E0A6959795879577956D
:101530006795BA95C9F700976105710508959B01F4
:10154000AC010A2E06945795479537952795BA957D
:10155000C9F7620F731F841F951FA01D0895052EE4
:1015600097FB1EF400940E94C60A57FD07D00E9404
:10157000180B07FC03D04EF40C94C60A5095409506
:10158000309521953F4F4F4F5F4F0895909580952F
:10159000709561957F4F8F4F9F4F08950E943A0B32
:1015A000A59F900DB49F900DA49F800D911D1124B7
:1015B0000895B7FF0C94CE0A0E94CE0A821B930BAB
:1015C00008952F923F924F925F926F927F928F92E7
:1015D0009F92AF92BF92CF92DF92EF92FF920F93C2
:1015E0001F93CF93DF93CDB7DEB7CA1BDB0B0FB6CC
:1015F000F894DEBF0FBECDBF09942A883988488889
:101600005F846E847D848C849B84AA84B984C8841E
:10161000DF80EE80FD800C811B81AA81B981CE0F15
:10162000D11D0FB6F894DEBF0FBECDBFED010895FA
:10163000A1E21A2EAA1BBB1BFD010DC0AA1FBB1FD6
:10164000EE1FFF1FA217B307E407F50720F0A21B48
:10165000B30BE40BF50B661F771F881F991F1A94B5
:1016600069F760957095809590959B01AC01BD01DF
:10167000CF010895A29FB001B39FC001A39F700D39
:10168000811D1124911DB29F700D811D1124911D8A
:061690000895F894FFCF5D
:1016960000008F01200001000000506C6179204796
:1016A600616D65004F7074696F6E73004869676895
:1016B6002053636F72657300446966666963756C6F
:1016C60074790045617379004D656469756D0048EC
:1016D6006172640052616E646F6D002569000A5282
:1016E600756E206D61696E2C20636F6465203D20E8
:0416F60025690A0058
:00000001FF
