:100000000C94A2020C94BF020C94BF020C94BF0289
:100010000C94BF020C94BF020C94BF020C94BF025C
:100020000C94BF020C94BF020C94BF020C94BF024C
:100030000C94BF020C94BF020C94BF020C94BF023C
:100040000C94BF020C94BF020C94BF020C94BF022C
:100050000C94BF020C94BF020C94BF020C94BF021C
:100060000C94BF020C94BF020C94BF020C94BF020C
:10007000000000000000000000065F5F06000000B6
:100080000007070007070000147F7F147F7F14001C
:10009000242E6B6B3A120000466630180C66620024
:1000A000307A4F5D377A48000407030000000000F3
:1000B000001C3E63410000000041633E1C00000044
:1000C000082A3E1C1C3E2A0808083E3E080800007C
:1000D00000A0E06000000000080808080808000010
:1000E00000006060000000006030180C0603010092
:1000F0003E7F594D7F3E000042427F7F40400000DE
:10010000627359496F660000226349497F360000D7
:10011000181C16137F7F1000276745457D390000A6
:100120003C7E4B4979300000036371190F070000D2
:10013000367F49497F360000064F49693F1E00005F
:1001400000006C6C0000000000A0EC6C00000000DF
:10015000081C366341000000141414141414000029
:10016000004163361C080000020351590F060000CD
:100170003E7F415D5D1F1E007C7E13137E7C000070
:10018000417F7F49497F36001C3E63414163220025
:10019000417F7F41637F1C00417F7F495D41630058
:1001A000417F7F491D0103001C3E63415173720072
:1001B0007F7F08087F7F000000417F7F41000000B3
:1001C000307040417F3F0100417F7F081C77630012
:1001D000417F7F41406070007F7F060C067F7F007B
:1001E0007F7F060C187F7F001C3E6341633E1C002E
:1001F000417F7F49090F06001E3F21717F5E00008D
:10020000417F7F19396F460026674D597B320000C8
:1002100003417F7F410300007F7F40407F7F0000DC
:100220001F3F60603F1F00007F7F3018307F7F00DE
:1002300063771C081C776300074F78784F0700002E
:100240006773594D47637100007F7F414100000093
:100250000103060C183060000041417F7F00000060
:10026000080C0603060C0800808080808080808057
:100270000000030704000000207454543C78400040
:10028000413F7F44447C3800387C44446C28000063
:10029000307848493F7F4000387C54545C18000057
:1002A000487E7F490302000098BCA4A4F87C0400A7
:1002B000417F7F08047C780000447D7D4000000081
:1002C00040C484FD7D000000417F7F10386C4400F5
:1002D00000417F7F400000007C7C0C180C7C780083
:1002E0007C7C04047C780000387C44447C3800002A
:1002F00084FCF8A4243C1800183C24A4F8FC8400D6
:10030000447C78441C180000485C54547424000059
:1003100000043E7F442400003C7C40403C7C400084
:100320001C3C60603C1C00003C7C6030607C3C00FD
:10033000446C3810386C44009CBCA0A0FC7C0000CD
:100340004C64745C4C64000008083E774141000036
:1003500000000077770000004141773E0808000068
:1003600002030103020301003030FC78303078FCD6
:1003700030302038FE38200838FE38087CD6FEC6DB
:100380007C000000000000000000000000000000F1
:10039000000000000000000000000000000000005D
:1003A000000000000000000000000000000000004D
:1003B000000000000000000000000000000000003D
:1003C000000000000000000000000000000000002D
:1003D000000000000000000000000000000000001D
:1003E000000000000000000000000000000000000D
:1003F00000000000000000000000000000000000FD
:1004000000000000000000000000000000000000EC
:1004100000000000000000000000000000000000DC
:1004200000000000000000000000000000000000CC
:1004300000000000000000000000000000000000BC
:1004400000000000000000000000000000000000AC
:10045000000000000000000000000000000000009C
:10046000000000000000000000000000000000008C
:10047000000000000000000000000000000000007C
:10048000000000000000000000000000000000006C
:10049000000000000000000000000000000000005C
:1004A000000000000000000000000000000000004C
:1004B000000000000000000000000000000000003C
:1004C000000000000000000000000000000000002C
:1004D000000000000000000000000000000000001C
:1004E000000000000000000000000000000000000C
:1004F00000000000000000000000000000000000FC
:1005000000000000000000000000000000000000EB
:1005100000000000000000000000000000000000DB
:1005200000000000000000000000000000000000CB
:1005300000000000000000000000000000000000BB
:100540000000000011241FBECFEFD4E0DEBFCDBFFE
:1005500011E0A0E0B1E0E4E3F6E102C005900D9205
:10056000A636B107D9F721E0A6E6B1E001C01D9299
:10057000A039B207E1F70E948A050C94180B0C947D
:100580000000FC010FB6F89460918C0170918D0110
:1005900080918E0190918F010FBE309721F0608382
:1005A000718382839383089586B38170089586B39F
:1005B0008695817008958D9A8EB588608EBD8EB5B2
:1005C00081608EBD8EB58D7F8EBD8EB58B7F8EBDCD
:1005D0008FB580648FBD81E090E09BBD8ABD08959A
:1005E0006F927F928F929F92AF92BF92CF92DF9243
:1005F000EF92FF920F931F93CF93DF9388E190E0E8
:100600000E94EC058C0188E190E00E94EC054C0111
:1006100088E190E00E94EC055C0188E190E00E9496
:10062000EC05EC0188E190E00E94EC053C0188E1DA
:1006300090E00E94EC056C0188E190E00E94EC05DE
:100640007C0188E190E00E94EC05D80118962AE030
:10065000EBE0F1E001900D922A95E1F7F8011782A5
:100660001682918280821382128215821482D401B2
:10067000189628E0E5E1F1E001900D922A95E1F766
:10068000F40117821682B182A0821383028315823D
:100690001482D50118962CE0EDE1F1E001900D9265
:1006A0002A95E1F7F50117821682D183C0839382E0
:1006B000828215821482DE0118962BE0E9E2F1E0D5
:1006C00001900D922A95E1F71F821E8219821882ED
:1006D000BB82AA827D826C82D301189625E0E4E376
:1006E000F1E001900D922A95E1F7F301D783C683DB
:1006F000D182C0821382128215821482D60118968A
:1007000027E0E9E3F1E001900D922A95E1F7F60187
:10071000D783C683F182E082D382C282158214829B
:10072000D701189625E0E0E4F1E001900D922A95BA
:10073000E1F7F701D783C68391838083F382E28256
:1007400015821482DC01189627E0E5E4F1E00190BF
:100750000D922A95E1F7FC01D783C683118210829E
:10076000F382E2821582148210937F0100937E014E
:100770001093810100938001DF91CF911F910F9120
:10078000FF90EF90DF90CF90BF90AF909F908F90B1
:100790007F906F900895CF92DF92FF920F931F93F7
:1007A000CF93DF930E942505C0917E01D0917F01F8
:1007B000209751F1F12C0F2EFCE4CF2EF1E0DF2E2B
:1007C000F02DF3942FEF8FEF95E021508040904073
:1007D000E1F700C000C08E01085F1F4F43E06F2D9E
:1007E000C8010E94F2041F930F93DF92CF920E94E0
:1007F000B4070E94A5040990D881C02D0F900F90D6
:100800000F900F902097E9F64AE060910A0180E08E
:100810000E943F050E94A504DF91CF911F910F9187
:10082000FF90DF90CF900895E0918001F0918101D9
:1008300080819181909381018093800108951F931D
:10084000CF93DF930E9414040E94250580910A0132
:100850008F5F80930A01C0917E01D0917F01209724
:1008600091F010E01F5F43E0612FCE0108960E94D7
:10087000F2040E94A5040990D881C02D00C000C0D8
:100880000000209779F74AE060910A0180E00E9419
:100890003F050E94A504DF91CF911F910895E0913B
:1008A0008001F091810184819581009779F0909386
:1008B0007F0180937E01909381018093800181E08C
:1008C00080930A010E9425050E94CB03089582951A
:1008D0008F7080618093001000C000C000000895F8
:1008E000E0E0F0E1806B808300C000C00000629512
:1008F0006F706061608300C000C00000089560E018
:100900000E94700408950F931F93CF930E947F0459
:10091000C0E000E012E18C2F0E946704F801108211
:10092000CF5FC038C1F7CF911F910F910895CF933A
:10093000C0E08C2F0E948304CF5FC830D1F760E005
:1009400080E00E947004CF910895CF92DF92EF92E1
:10095000FF920F931F93CF93DF930F2EC12CF8E1DB
:10096000DF2EF02DD0E00F2EE12CF2E1FF2EF02D46
:100970008D2F0E947F048601C0E08C2F0E946704A7
:10098000F80181918F01F7018083CF5FC038A9F70B
:10099000DF5FF0E8CF0ED11CD83051F7DF91CF9157
:1009A0001F910F91FF90EF90DF90CF90089528E076
:1009B000829FC0011124FC01E059F04050E080E822
:1009C000689F400D511D1124DA01B85E485F574EF3
:1009D000849100C000C000008D933196A417B50724
:1009E000B9F70895CF92DF92EF92FF920F931F9382
:1009F000CF93DF938C01D62F7C01C42FCC0FCC0F6B
:100A0000CC0FC12CD12C0EC04C2F6D2FF701819132
:100A10007F010E94D70400C000C00000FFEFCF1A82
:100A2000DF0AC85FF80101900020E9F73197E01B69
:100A3000F10BCE16DF0640F3DF91CF911F910F919E
:100A4000FF90EF90DF90CF900895E0E0F8E11192F1
:100A5000E1158CE1F807D9F708958FEA809300102B
:100A60008FEF9FE20197F1F700C0000060E080E0A7
:100A70000E9470040E9497040E942505089590E04A
:100A8000FC01EE0FFF1FEE0FFF1FE80FF91FE859E3
:100A9000FC4F50E080E8689F400D511D1124DA01A1
:100AA000B85E4B5F574E849100C000C000008D932C
:100AB0003196A417B507B9F70895962F9695969590
:100AC0009695E82FF0E080E8989FE00DF11D112445
:100AD000F85E677081E090E002C0880F991F6A9508
:100AE000E2F79081892B80830895159BFECF83B90F
:100AF0000895179BFECF83B108959CBF80B988E10C
:100B000081B98EE88CBF69E775E085E795E00E94C2
:100B100069070895CF93DF9300D000D0CDB7DEB73B
:100B200080E090E00E94C10269837A838B839C837A
:100B3000CE0101960E94C102CB010E945E07D09AAD
:100B40008FEF8ABB319A84B38F6084BB8F9A8E9A61
:100B500085B7806885BF80B7806280BF8FE190E0F5
:100B60000E947D050E94DB020E942D050E9459070C
:100B70009F938F938FE491E09F938F930E94B4078C
:100B800060E48FE70E945D050E94F0020E94CB03A3
:100B90000F900F900F900F900E94D702892B61F059
:100BA0000E944F042FEF8FEF92E021508040904041
:100BB000E1F700C000C0F0CF0E94D402892B61F39E
:100BC0000E941F042FEF8FEF92E021508040904051
:100BD000E1F700C000C0E0CF0F931F93CF93DF93E6
:100BE0008230910510F482E090E0E0918401F09170
:100BF000850120E030E0A0E0B0E0309719F14081BD
:100C000051810281138148175907C8F0841795074D
:100C100069F4109731F012960C93129713961C9367
:100C200027C0009384011093850122C0211531054E
:100C300019F04217530718F49A01BD01EF01DF01C3
:100C4000F801DBCF21153105F9F0281B390B2430D1
:100C5000310580F48A819B816115710521F0FB01CA
:100C60009383828304C09093850180938401FE0165
:100C7000329644C0FE01E20FF31F819391932250FC
:100C80003109398328833AC0209182013091830150
:100C9000232B41F420910201309103013093830111
:100CA000209382012091000130910101211531052D
:100CB00041F42DB73EB74091040150910501241B2A
:100CC000350BE0918201F0918301E217F307A0F464
:100CD0002E1B3F0B2817390778F0AC014E5F5F4F92
:100CE0002417350748F04E0F5F1F50938301409340
:100CF00082018193919302C0E0E0F0E0CF01DF91A7
:100D0000CF911F910F910895CF93DF93009709F42E
:100D100081C0FC01329713821282A0918401B091AC
:100D20008501109781F420813181820F931F2091DA
:100D30008201309183012817390751F5F09383011F
:100D4000E093820167C0ED0120E030E0CE17DF07BD
:100D500040F44A815B819E0141155105F1F0EA01A1
:100D6000F5CFD383C28340815181840F951FC8176B
:100D7000D90759F488819981840F951F0296918330
:100D800080838A819B81938382832115310529F495
:100D9000F0938501E09384013DC0E901FB83EA8380
:100DA00049915991C40FD51FEC17FD0761F480815B
:100DB0009181840F951F0296E9019983888382812E
:100DC00093819B838A83E0E0F0E012968D919C9161
:100DD0001397009719F0FD01DC01F7CF8D919C91DD
:100DE00011979D012E5F3F4F820F931F209182012B
:100DF000309183012817390769F4309729F410924C
:100E000085011092840102C013821282B093830183
:100E1000A0938201DF91CF9108958F929F92AF921C
:100E2000BF92CF92DF92EF92FF92CF93DF93EC01CC
:100E3000688179818A819B816115710581059105A0
:100E400021F464E279ED8BE597E02DE133EF41E0A9
:100E500050E00E947E0A49015A019B01AC01A7EAB9
:100E6000B1E40E949D0A6B017C01ACEEB4EFA501D8
:100E700094010E94AB0ADC01CB018C0D9D1DAE1DBF
:100E8000BF1DB7FF03C00197A109B04888839983AC
:100E9000AA83BB839F77DF91CF91FF90EF90DF9084
:100EA000CF90BF90AF909F908F9008950E940D07B4
:100EB000089586E091E00E940D070895A0E0B0E05B
:100EC0008093060190930701A0930801B093090154
:100ED00008950F931F93CF93DF93009731F461151B
:100EE000710519F480E090E03AC08B01EC016EE0EE
:100EF00070E081E090E00E94AB09FC01892B91F346
:100F000080E883830115110571F01387028781E85A
:100F100083838091860190918701892B21F4F0933E
:100F20008701E09386012097C9F0D187C08783812C
:100F3000826083838091880190918901892B71F46B
:100F4000F0938901E093880180918A0190918B014F
:100F5000892B21F4F0938B01E0938A01CF01DF917B
:100F6000CF911F910F910895A0E0B0E0EAEBF7E078
:100F70000C94C00AAE014B5F5F4FFA016191719111
:100F8000AF0180918801909189010E94CA07E2E037
:100F90000C94DC0AABE0B0E0E0EDF7E00C94B00AB2
:100FA0006C017B018A01FC0117821682838181FF1B
:100FB000CCC1CE0101963C01F6019381F70193FD6E
:100FC000859193FF81917F01882309F4BAC185320D
:100FD00039F493FD859193FF81917F01853229F446
:100FE000B60190E00E94E409E7CF912C212C312C2E
:100FF000FFE1F315D8F08B3279F038F4803279F0D4
:101000008332A1F4232D20611DC08D3261F0803325
:1010100069F4232D216016C0832D8260382EE32DC4
:10102000E4603E2E2AC0F32DF8601DC037FC2DC0B1
:1010300020ED280F2A3040F08E32B9F436FC81C101
:10104000232D2064322E19C036FE06C08AE0989EF9
:10105000200D1124922E11C0EAE02E9E200D1124A5
:10106000222EF32DF0623F2E08C08C3621F4832D02
:101070008068382E02C0883641F4F70193FD8591CF
:1010800093FF81917F018111B3CF982F9F7D95545C
:10109000933028F40C5F1F4F9FE399830DC0833674
:1010A00031F0833771F0833509F059C021C0F80160
:1010B000808189830E5F1F4F88248394912C530174
:1010C00013C02801F2E04F0E511CF801A080B1803E
:1010D00036FE03C0692D70E002C06FEF7FEFC501DF
:1010E0000E94D9094C018201F32DFF773F2E16C0D3
:1010F000280122E0420E511CF801A080B18036FE8A
:1011000003C0692D70E002C06FEF7FEFC5010E9440
:10111000C7094C01F32DF0683F2E820133FC1BC040
:10112000822D90E088169906B0F4B60180E290E036
:101130000E94E4092A94F4CFF50137FC859137FE2B
:1011400081915F01B60190E00E94E40921102A9488
:1011500021E0821A91088114910471F7E8C0843665
:1011600011F0893641F5F80137FE07C060817181C1
:10117000828193810C5F1F4F08C060817181072EAF
:10118000000C880B990B0E5F1F4FF32DFF763F2E3F
:1011900097FF09C090958095709561957F4F8F4F0F
:1011A0009F4FF0683F2E2AE030E0A3010E94200A02
:1011B000882E861845C0853731F4232D2F7EB22E18
:1011C0002AE030E025C0932D997FB92E8F36C1F0EB
:1011D00018F4883579F0B5C0803719F0883721F0D8
:1011E000B0C0E92FE061BE2EB4FE0DC0FB2DF4604F
:1011F000BF2E09C034FE0AC0292F2660B22E06C0B9
:1012000028E030E005C020E130E002C020E132E01B
:10121000F801B7FE07C060817181828193810C5F04
:101220001F4F06C06081718180E090E00E5F1F4F0C
:10123000A3010E94200A882E8618FB2DFF773F2EDF
:1012400036FE0DC0232D2E7FA22E891458F434FEB5
:101250000BC032FC09C0832D8E7EA82E05C0B82C91
:10126000A32C03C0B82C01C0B92CA4FE0FC0FE01F2
:10127000E80DF11D8081803321F49A2D997EA92EED
:1012800009C0A2FE06C0B394B39404C08A2D867828
:1012900009F0B394A3FC11C0A0FE06C0B21488F4F8
:1012A000280C922C9B180EC0B21460F4B60180E298
:1012B00090E00E94E409B394F7CFB21418F42B180D
:1012C00002C0982C212CA4FE10C0B60180E390E04F
:1012D0000E94E409A2FE17C0A1FC03C088E790E0C9
:1012E00002C088E590E0B6010CC08A2D867859F0DE
:1012F000A1FE02C08BE201C080E2A7FC8DE2B60134
:1013000090E00E94E409891438F4B60180E390E08B
:101310000E94E4099A94F7CF8A94F301E80DF11D35
:101320008081B60190E00E94E4098110F5CF22206F
:1013300009F442CEB60180E290E00E94E4092A94CA
:10134000F6CFF6018681978102C08FEF9FEF2B9633
:10135000E2E10C94CC0A0F931F93CF93DF93869F07
:101360008001879F100D969F100D1124C8010E94C7
:10137000EC05EC01009729F0A80160E070E00E9404
:10138000D209CE01DF91CF911F910F910895FC01F9
:101390000590615070400110D8F7809590958E0FA0
:1013A0009F1F0895DC0101C06D9341505040E0F74C
:1013B0000895FC016150704001900110D8F78095AC
:1013C00090958E0F9F1F08950F931F93CF93DF93D8
:1013D000FB01238121FD03C08FEF9FEF2CC022FF73
:1013E00016C046815781248135814217530744F442
:1013F000A081B1819D012F5F3F4F318320838C936A
:10140000268137812F5F3F4F3783268314C08B019E
:10141000EC01FB010084F185E02D0995892BE1F6B3
:10142000D80116968D919C911797019617969C93CB
:101430008E931697CE01DF91CF911F910F91089552
:10144000FA01AA27283051F1203181F1E8946F93F5
:101450006E7F6E5F7F4F8F4F9F4FAF4FB1E03ED09B
:10146000B4E03CD0670F781F891F9A1FA11D680F39
:10147000791F8A1F911DA11D6A0F711D811D911D6C
:10148000A11D20D009F468943F912AE0269F1124E1
:101490003019305D3193DEF6CF010895462F477045
:1014A000405D4193B3E00FD0C9F7F6CF462F4F70A0
:1014B000405D4A3318F0495D31FD4052419302D0FE
:1014C000A9F7EACFB4E0A6959795879577956795A4
:1014D000BA95C9F700976105710508959B01AC01A4
:1014E0000A2E06945795479537952795BA95C9F7CB
:1014F000620F731F841F951FA01D0895052E97FB73
:101500001EF400940E94950A57FD07D00E94E70A36
:1015100007FC03D04EF40C94950A509540953095F5
:1015200021953F4F4F4F5F4F08959095809570954F
:1015300061957F4F8F4F9F4F08950E94090BA59F84
:10154000900DB49F900DA49F800D911D11240895BE
:10155000B7FF0C949D0A0E949D0A821B930B08956D
:101560002F923F924F925F926F927F928F929F92B3
:10157000AF92BF92CF92DF92EF92FF920F931F93A1
:10158000CF93DF93CDB7DEB7CA1BDB0B0FB6F89452
:10159000DEBF0FBECDBF09942A88398848885F8492
:1015A0006E847D848C849B84AA84B984C884DF8003
:1015B000EE80FD800C811B81AA81B981CE0FD11DE7
:1015C0000FB6F894DEBF0FBECDBFED010895A1E2C6
:1015D0001A2EAA1BBB1BFD010DC0AA1FBB1FEE1FAD
:1015E000FF1FA217B307E407F50720F0A21BB30BF8
:1015F000E40BF50B661F771F881F991F1A9469F774
:1016000060957095809590959B01AC01BD01CF01CF
:101610000895A29FB001B39FC001A39F700D811DCB
:101620001124911DB29F700D811D1124911D0895EB
:04163000F894FFCF5C
:101634000000900120000100000001506C6179203D
:1016440047616D65004F7074696F6E730048696718
:10165400682053636F7265730044696666696375D5
:101664006C74790045617379004D656469756D002A
:10167400486172640052616E646F6D002564000AF3
:1016840052756E206D61696E2C20636F6465203D18
:061694002025690A000098
:00000001FF
