S016000070696E6720706F6E6720746573742E73726563AC
S11300000C94A2020C94BF020C94BF020C94BF0285
S11300100C94BF020C94BF020C94BF020C94BF0258
S11300200C94BF020C94BF020C94BF020C94BF0248
S11300300C94BF020C94BF020C94BF020C94BF0238
S11300400C94BF020C94BF020C94BF020C94BF0228
S11300500C94BF020C94BF020C94BF020C94BF0218
S11300600C94BF020C94BF020C94BF020C94BF0208
S1130070000000000000000000065F5F06000000B2
S11300800007070007070000147F7F147F7F140018
S1130090242E6B6B3A120000466630180C66620020
S11300A0307A4F5D377A48000407030000000000EF
S11300B0001C3E63410000000041633E1C00000040
S11300C0082A3E1C1C3E2A0808083E3E0808000078
S11300D000A0E0600000000008080808080800000C
S11300E000006060000000006030180C060301008E
S11300F03E7F594D7F3E000042427F7F40400000DA
S1130100627359496F660000226349497F360000D3
S1130110181C16137F7F1000276745457D390000A2
S11301203C7E4B4979300000036371190F070000CE
S1130130367F49497F360000064F49693F1E00005B
S113014000006C6C0000000000A0EC6C00000000DB
S1130150081C366341000000141414141414000025
S1130160004163361C080000020351590F060000C9
S11301703E7F415D5D1F1E007C7E13137E7C00006C
S1130180417F7F49497F36001C3E63414163220021
S1130190417F7F41637F1C00417F7F495D41630054
S11301A0417F7F491D0103001C3E6341517372006E
S11301B07F7F08087F7F000000417F7F41000000AF
S11301C0307040417F3F0100417F7F081C7763000E
S11301D0417F7F41406070007F7F060C067F7F0077
S11301E07F7F060C187F7F001C3E6341633E1C002A
S11301F0417F7F49090F06001E3F21717F5E000089
S1130200417F7F19396F460026674D597B320000C4
S113021003417F7F410300007F7F40407F7F0000D8
S11302201F3F60603F1F00007F7F3018307F7F00DA
S113023063771C081C776300074F78784F0700002A
S11302406773594D47637100007F7F41410000008F
S11302500103060C183060000041417F7F0000005C
S1130260080C0603060C0800808080808080808053
S11302700000030704000000207454543C7840003C
S1130280413F7F44447C3800387C44446C2800005F
S1130290307848493F7F4000387C54545C18000053
S11302A0487E7F490302000098BCA4A4F87C0400A3
S11302B0417F7F08047C780000447D7D400000007D
S11302C040C484FD7D000000417F7F10386C4400F1
S11302D000417F7F400000007C7C0C180C7C78007F
S11302E07C7C04047C780000387C44447C38000026
S11302F084FCF8A4243C1800183C24A4F8FC8400D2
S1130300447C78441C180000485C54547424000055
S113031000043E7F442400003C7C40403C7C400080
S11303201C3C60603C1C00003C7C6030607C3C00F9
S1130330446C3810386C44009CBCA0A0FC7C0000C9
S11303404C64745C4C64000008083E774141000032
S113035000000077770000004141773E0808000064
S113036002030103020301003030FC78303078FCD2
S113037030302038FE38200838FE38087CD6FEC6D7
S11303807C000000000000000000000000000000ED
S11303900000000000000000000000000000000059
S11303A00000000000000000000000000000000049
S11303B00000000000000000000000000000000039
S11303C00000000000000000000000000000000029
S11303D00000000000000000000000000000000019
S11303E00000000000000000000000000000000009
S11303F000000000000000000000000000000000F9
S113040000000000000000000000000000000000E8
S113041000000000000000000000000000000000D8
S113042000000000000000000000000000000000C8
S113043000000000000000000000000000000000B8
S113044000000000000000000000000000000000A8
S11304500000000000000000000000000000000098
S11304600000000000000000000000000000000088
S11304700000000000000000000000000000000078
S11304800000000000000000000000000000000068
S11304900000000000000000000000000000000058
S11304A00000000000000000000000000000000048
S11304B00000000000000000000000000000000038
S11304C00000000000000000000000000000000028
S11304D00000000000000000000000000000000018
S11304E00000000000000000000000000000000008
S11304F000000000000000000000000000000000F8
S113050000000000000000000000000000000000E7
S113051000000000000000000000000000000000D7
S113052000000000000000000000000000000000C7
S113053000000000000000000000000000000000B7
S11305400000000011241FBECFEFD4E0DEBFCDBFFA
S113055012E0A0E0B1E0E8E3FBE102C005900D92F7
S1130560AA36B107D9F722E0AAE6B2E001C01D928B
S1130570A439B207E1F70E9480070C949A0D0C94F9
S11305800000FC010FB6F894609190027091910202
S113059080919202909193020FBE309721F0608374
S11305A071838283938308950E9460070E94C60426
S11305B08FEF9FE20197F1F700C000008EE00E94E8
S11305C08504807E803821F08BE091E00E941C0A33
S11305D060E48FE00E9494049FEF2FE781E0915044
S11305E020408040E1F700C000C08EE00E948504F6
S11305F0807E803421F080E491E00E941C0A0E94F5
S1130600BD041F928F938BE591E09F938F930E947B
S1130610060A0F900F900F900F900895EF92FF929B
S11306200F931F93CF93DF93CDB7DEB72B970FB6FE
S1130630F894DEBF0FBECDBFE982FA821C832D83FE
S11306403E834F83588769877A878B87E980FA804E
S1130650602F85E30E949404B7017695679576959B
S113066067957695679581E30E949404B701677056
S11306707727660F771F62957295707F7627607F64
S1130680762782E30E9494046C8180E10E949404A2
S11306906D8181E10E9494046E8182E10E94940440
S11306A06F8183E10E949404688584E10E9494042C
S11306B0698585E10E9494046A8586E10E94940418
S11306C06B8587E10E94940481E00E94AC042B9620
S11306D00FB6F894DEBF0FBECDBFDF91CF911F914F
S11306E00F91FF90EF9008957F928F929F92AF9217
S11306F0BF92CF92DF92EF92FF920F931F93CF930B
S1130700DF9381E60E948504E82EF12C1F928F93DB
S11307108CE691E09F938F930E94060A82E60E94E2
S1130720850490E0EC01D595C795D595C795D595E9
S1130730C795D595C795D595C795DF93CF9387E78B
S113074091E09F938F930E94060A85E60E94850498
S1130750182F80E10E948504782E81E10E9485048F
S1130760882E82E10E948504982E83E10E948504EC
S1130770A82E84E10E948504B82E85E10E94850498
S1130780C82E86E10E948504D82E87E10E94850444
S1130790082F60E080EB0E949404C701880F991F22
S11307A0880F991F880F991FC82BD92BDF93CF93DC
S11307B080E891E09F938F930E94060A1F701F9216
S11307C01F938CE891E09F938F930E94060A1F92D7
S11307D07F928CE991E09F938F930E94060A1F9267
S11307E08F9289EA91E09F938F930E94060A1F9249
S11307F09F9286EB91E09F938F930E94060A1F922B
S1130800AF9283EC91E09F938F930E94060A8DB779
S11308109EB780960FB6F8949EBF0FBE8DBF1F92F1
S1130820BF9280ED91E09F938F930E94060A1F92DE
S1130830CF928DED91E09F938F930E94060A1F92B1
S1130840DF928AEE91E09F938F930E94060A1F9293
S11308500F9387EF91E09F938F930E94060A8DB7C1
S11308609EB740960FB6F8949EBF0FBE8DBFDF9122
S1130870CF911F910F91FF90EF90DF90CF90BF9099
S1130880AF909F908F907F900895861718F0962FC1
S1130890909501C0962F282F30E0261B310984E65D
S11308A0829FA001839F500D1124692F70E0CA011B
S11308B00E941608CB01089586B386958170089529
S11308C080E8809304148FEF9FE50197F1F700C04F
S11308D0000080910014E0E0F0EF3197F1F7089503
S11308E08D9A8EB588608EBD8EB581608EBD8EB5B5
S11308F08D7F8EBD8EB58B7F8EBD8FB580648FBD91
S113090081E090E09BBD8ABD0895CF93C82FC49821
S113091083E00E9466078C2F0E94660780E00E9495
S11309206607C49ACF910895CF93DF93D82FC62F2B
S1130930C49882E00E9466078D2F0E94660783ECAC
S113094099E00197F1F700C000008C2F0E94660720
S1130950C49ADF91CF910895C498883048F085E611
S11309608F9382E78F930E94060A0F900F9003C023
S113097080680E946607C49A0895C49880EA0E9419
S1130980660780E00E946607C49A0895C49880ECC4
S11309900E946607C49A08956F927F928F929F92E5
S11309A0AF92BF92CF92DF92EF92FF920F931F9379
S11309B0CF93DF9388E190E00E943E088C0188E1A8
S11309C090E00E943E084C0188E190E00E943E08BD
S11309D05C0188E190E00E943E08EC0188E190E02F
S11309E00E943E083C0188E190E00E943E086C01B0
S11309F088E190E00E943E087C0188E190E00E943A
S1130A003E08D80118962AE0E4E0F2E001900D9245
S1130A102A95E1F7F8011782168291828082138267
S1130A20128215821482D401189628E0EEE0F2E0D6
S1130A3001900D922A95E1F7F40117821682B18292
S1130A40A0821383028315821482D50118962CE0A8
S1130A50E6E1F2E001900D922A95E1F7F5011782A3
S1130A601682D183C0839382828215821482DE012E
S1130A7018962BE0E2E2F2E001900D922A95E1F75C
S1130A801F821E8219821882BB82AA827D826C8296
S1130A90D301189625E0EDE2F2E001900D922A953B
S1130AA0E1F7F301D783C683D182C0821382128215
S1130AB015821482D601189627E0E2E3F2E0019051
S1130AC00D922A95E1F7F601D783C683F182E0827D
S1130AD0D382C28215821482D701189625E0E9E3F5
S1130AE0F2E001900D922A95E1F7F701D783C683CE
S1130AF091838083F382E28215821482DC0118964A
S1130B0027E0EEE3F2E001900D922A95E1F7FC0173
S1130B10D783C68311821082F382E2821582148203
S1130B20109383020093820210938502009384023F
S1130B30DF91CF911F910F91FF90EF90DF90CF90B5
S1130B40BF90AF909F908F907F906F9008951F9368
S1130B50CF93DF930E942807C0918202D091830231
S1130B602097C1F010E01F5F2FEF8FEF95E0215029
S1130B7080409040E1F700C000C043E0612FCE0107
S1130B8008960E94F5060E94A8060990D881C02DF7
S1130B90209749F74AE060910A0180E00E944207E9
S1130BA00E94A806DF91CF911F910895E0918402DD
S1130BB0F0918502808191819093850280938402D3
S1130BC008951F93CF93DF930E94D6050E942807B0
S1130BD080910A018F5F80930A01C0918202D091B3
S1130BE08302209791F010E01F5F43E0612FCE0154
S1130BF008960E94F5060E94A8060990D881C02D87
S1130C0000C000C00000209779F74AE060910A0113
S1130C1080E00E9442070E94A806DF91CF911F91B5
S1130C200895E0918402F0918502828193819093EA
S1130C3085028093840208951F93CF93DF930E94CB
S1130C4011060E94280780910A01815080930A01AD
S1130C50C0918202D0918302209791F010E01F5F2F
S1130C6043E0612FCE0108960E94F5060E94A80673
S1130C700990D881C02D84EA8A95F1F7209779F7F5
S1130C804AE060910A0180E00E9442070E94A8069F
S1130C90DF91CF911F910895E0918402F091850234
S1130CA0848195810097A9F09093830280938202B6
S1130CB0909385028093840281E080930A010E94CC
S1130CC028078CEC94E00197F1F700C000000E9423
S1130CD0A705089582958F7080618093001000C0ED
S1130CE000C000000895E0E0F0E1806B808300C064
S1130CF000C0000062956F706061608300C000C036
S1130D000000089560E00E94730608950F931F93F6
S1130D10CF930E948206C0E000E012E18C2F0E9473
S1130D206A06F8011082CF5FC038C1F7CF911F91D6
S1130D300F910895CF93C0E08C2F0E948606CF5F59
S1130D40C830D1F760E080E00E947306CF91089527
S1130D50CF92DF92EF92FF920F931F93CF93DF9383
S1130D600F2EC12CF8E1DF2EF02DD0E00F2EE12C58
S1130D70F2E1FF2EF02D8D2F0E9482068601C0E045
S1130D808C2F0E946A06F80181918F01F7018083FC
S1130D90CF5FC038A9F7DF5FF0E8CF0ED11CD830A1
S1130DA051F7DF91CF911F910F91FF90EF90DF905A
S1130DB0CF90089528E0829FC0011124FC01E059DE
S1130DC0F04050E080E8689F400D511D1124DA0185
S1130DD0B85E485F574E849100C000C000008D93F8
S1130DE03196A417B507B9F70895CF92DF92EF9221
S1130DF0FF920F931F93CF93DF938C01D62F7C0127
S1130E00C42FCC0FCC0FCC0FC12CD12C0EC04C2F27
S1130E106D2FF70181917F010E94DA0600C000C0A6
S1130E200000FFEFCF1ADF0AC85FF801019000202D
S1130E30E9F73197E01BF10BCE16DF0640F3DF91A3
S1130E40CF911F910F91FF90EF90DF90CF90089575
S1130E50E0E0F8E11192E1158CE1F807D9F7089583
S1130E608FEA809300108FEF9FE20197F1F700C0A3
S1130E70000060E080E00E9473060E949A060E94CF
S1130E802807089590E0FC01EE0FFF1FEE0FFF1FEF
S1130E90E80FF91FE859FC4F50E080E8689F400DC7
S1130EA0511D1124DA01B85E4B5F574E849100C086
S1130EB000C000008D933196A417B507B9F70895C3
S1130EC080EB87BB81E58DB9C69808958FB9779B70
S1130ED0FECF8FB10895159BFECF83B90895179B5C
S1130EE0FECF83B108959CBF80B988E181B98EE8B3
S1130EF08CBF6FE677E08BE697E00E94BB0908950C
S1130F00CF93DF93CDB7DEB72F970FB6F894DEBF3C
S1130F100FBECDBF80E090E00E94C10269837A8356
S1130F208B839C83CE0101960E94C102CB010E9457
S1130F30B009D09A8FEF8ABB319A84B38F6084BB97
S1130F408F9A8E9A85B7806885BF80B7806280BF8C
S1130F508FE190E00E9473070E9470040E943007A2
S1130F600E94D4020E94AB099F938F9385E492E080
S1130F709F938F930E94060A8CE1E82E8D831E8234
S1130F8082E08F8384E0888783E08987F12C02E004
S1130F9014E023E03A854B855C856D857E858F85DD
S1130FA00E940E030E9474030E94A8060E94CC04AF
S1130FB00E94A7050F900F900F900F900E9460045D
S1130FC065EA70E00E9445048B30910564F00E944C
S1130FD01C062FEF8FEF92E0215080409040E1F704
S1130FE000C000C0EBCF863F9F4F64F40E94E10530
S1130FF08FEF9FEF22E0815090402040E1F700C046
S113100000C0DCCF0E945C04892BC1F28BE592E026
S11310100E941C0A0E944C068FEF9FE727E0815034
S113102090402040E1F700C00000C8CF97FB072E96
S113103016F4009407D077FD09D00E942A0807FC13
S113104005D03EF4909581959F4F089570956195D4
S11310507F4F0895AA1BBB1B51E107C0AA1FBB1FEA
S1131060A617B70710F0A61BB70B881F991F5A9530
S1131070A9F780959095BC01CD0108950F931F9316
S1131080CF93DF938230910510F482E090E0E091F9
S11310908802F091890220E030E0A0E0B0E03097CF
S11310A019F1408151810281138148175907C8F011
S11310B08417950769F4109731F012960C931297E0
S11310C013961C9327C0009388021093890222C0B0
S11310D02115310519F04217530718F49A01BD017F
S11310E0EF01DF01F801DBCF21153105F9F0281BF1
S11310F0390B2430310580F48A819B816115710597
S113110021F0FB019383828304C09093890280932E
S11311108802FE01329644C0FE01E20FF31F819360
S1131120919322503109398328833AC02091860251
S113113030918702232B41F4209102013091030165
S1131140309387022093860220910001309101019F
S11311502115310541F42DB73EB74091040150915A
S11311600501241B350BE0918602F0918702E217FA
S1131170F307A0F42E1B3F0B2817390778F0AC01B6
S11311804E5F5F4F2417350748F04E0F5F1F509393
S11311908702409386028193919302C0E0E0F0E0DD
S11311A0CF01DF91CF911F910F910895CF93DF93DA
S11311B0009709F481C0FC01329713821282A09136
S11311C08802B0918902109781F420813181820FC5
S11311D0931F20918602309187022817390751F511
S11311E0F0938702E093860267C0ED0120E030E0CF
S11311F0CE17DF0740F44A815B819E0141155105FA
S1131200F1F0EA01F5CFD383C28340815181840F89
S1131210951FC817D90759F488819981840F951FA0
S11312200296918380838A819B8193838283211593
S1131230310529F4F0938902E09388023DC0E90165
S1131240FB83EA8349915991C40FD51FEC17FD071D
S113125061F480819181840F951F0296E90199833D
S11312608883828193819B838A83E0E0F0E01296F5
S11312708D919C911397009719F0FD01DC01F7CF34
S11312808D919C9111979D012E5F3F4F820F931F6B
S113129020918602309187022817390769F4309724
S11312A029F4109289021092880202C013821282D9
S11312B0B0938702A0938602DF91CF9108958F9215
S11312C09F92AF92BF92CF92DF92EF92FF92CF9311
S11312D0DF93EC01688179818A819B8161157105B5
S11312E08105910521F464E279ED8BE597E02DE128
S11312F033EF41E050E00E94000D49015A019B0187
S1131300AC01A7EAB1E40E941F0D6B017C01ACEEB5
S1131310B4EFA50194010E942D0DDC01CB018C0DCD
S11313209D1DAE1DBF1DB7FF03C00197A109B048A5
S113133088839983AA83BB839F77DF91CF91FF90A2
S1131340EF90DF90CF90BF90AF909F908F900895D3
S11313500E945F09089586E091E00E945F09089564
S1131360A0E0B0E08093060190930701A0930801E8
S1131370B093090108950F931F93CF93DF930097C0
S113138031F46115710519F480E090E03AC08B01E5
S1131390EC016EE070E081E090E00E942D0CFC0115
S11313A0892B91F380E883830115110571F013876C
S11313B0028781E8838380918A0290918B02892B32
S11313C021F4F0938B02E0938A022097C9F0D1872D
S11313D0C08783818260838380918C0290918D0287
S11313E0892B71F4F0938D02E0938C0280918E022C
S11313F090918F02892B21F4F0938F02E0938E0257
S1131400CF01DF91CF911F910F910895A0E0B0E03B
S1131410ECE0FAE00C94420DAE014B5F5F4FFA0131
S113142061917191AF0180918C0290918D020E9423
S11314304C0AE2E00C945E0D0F931F93CF93DF935D
S1131440E0918C02F0918D02238121FF1BC08C015D
S1131450D0E0C0E0F80181918F0160918C0270911D
S11314608D02DB011896ED91FC911997882331F0D8
S11314700995892B79F3DFEFCFEFECCF8AE009955B
S1131480892B19F08FEF9FEF02C08D2F9C2FDF91D6
S1131490CF911F910F910895ABE0B0E0E2E5FAE03F
S11314A00C94320D6C017B018A01FC0117821682B7
S11314B0838181FFCCC1CE0101963C01F601938169
S11314C0F70193FD859193FF81917F01882309F4AE
S11314D0BAC1853239F493FD859193FF81917F01DF
S11314E0853229F4B60190E00E94660CE7CF912C76
S11314F0212C312CFFE1F315D8F08B3279F038F43C
S1131500803279F08332A1F4232D20611DC08D3205
S113151061F0803369F4232D216016C0832D82602D
S1131520382EE32DE4603E2E2AC0F32DF8601DC052
S113153037FC2DC020ED280F2A3040F08E32B9F44C
S113154036FC81C1232D2064322E19C036FE06C01C
S11315508AE0989E200D1124922E11C0EAE02E9E5E
S1131560200D1124222EF32DF0623F2E08C08C365C
S113157021F4832D8068382E02C0883641F4F701A7
S113158093FD859193FF81917F018111B3CF982FB2
S11315909F7D9554933028F40C5F1F4F9FE39983EC
S11315A00DC0833631F0833771F0833509F059C0AB
S11315B021C0F801808189830E5F1F4F88248394A2
S11315C0912C530113C02801F2E04F0E511CF80175
S11315D0A080B18036FE03C0692D70E002C06FEFB9
S11315E07FEFC5010E945B0C4C018201F32DFF7754
S11315F03F2E16C0280122E0420E511CF801A080A3
S1131600B18036FE03C0692D70E002C06FEF7FEF3A
S1131610C5010E94490C4C01F32DF0683F2E820154
S113162033FC1BC0822D90E088169906B0F4B601F5
S113163080E290E00E94660C2A94F4CFF50137FC16
S1131640859137FE81915F01B60190E00E94660C9E
S113165021102A9421E0821A91088114910471F7CF
S1131660E8C0843611F0893641F5F80137FE07C029
S113167060817181828193810C5F1F4F08C06081FA
S11316807181072E000C880B990B0E5F1F4FF32DF1
S1131690FF763F2E97FF09C09095809570956195D0
S11316A07F4F8F4F9F4FF0683F2E2AE030E0A30119
S11316B00E94A20C882E861845C0853731F4232D4C
S11316C02F7EB22E2AE030E025C0932D997FB92ECB
S11316D08F36C1F018F4883579F0B5C0803719F029
S11316E0883721F0B0C0E92FE061BE2EB4FE0DC0F2
S11316F0FB2DF460BF2E09C034FE0AC0292F2660DA
S1131700B22E06C028E030E005C020E130E002C07F
S113171020E132E0F801B7FE07C060817181828167
S113172093810C5F1F4F06C06081718180E090E05F
S11317300E5F1F4FA3010E94A20C882E8618FB2D5A
S1131740FF773F2E36FE0DC0232D2E7FA22E891447
S113175058F434FE0BC032FC09C0832D8E7EA82EB3
S113176005C0B82CA32C03C0B82C01C0B92CA4FE0E
S11317700FC0FE01E80DF11D8081803321F49A2D04
S1131780997EA92E09C0A2FE06C0B394B39404C0E6
S11317908A2D867809F0B394A3FC11C0A0FE06C07C
S11317A0B21488F4280C922C9B180EC0B21460F466
S11317B0B60180E290E00E94660CB394F7CFB214B5
S11317C018F42B1802C0982C212CA4FE10C0B601CA
S11317D080E390E00E94660CA2FE17C0A1FC03C047
S11317E088E790E002C088E590E0B6010CC08A2D3D
S11317F0867859F0A1FE02C08BE201C080E2A7FC0A
S11318008DE2B60190E00E94660C891438F4B601AA
S113181080E390E00E94660C9A94F7CF8A94F301D7
S1131820E80DF11D8081B60190E00E94660C8110E4
S1131830F5CF222009F442CEB60180E290E00E9466
S1131840660C2A94F6CFF6018681978102C08FEF49
S11318509FEF2B96E2E10C944E0D0F931F93CF93C1
S1131860DF93869F8001879F100D969F100D112492
S1131870C8010E943E08EC01009729F0A80160E02D
S113188070E00E94540CCE01DF91CF911F910F9113
S11318900895FC010590615070400110D8F78095BF
S11318A090958E0F9F1F0895DC0101C06D934150E8
S11318B05040E0F70895FC01615070400190011020
S11318C0D8F7809590958E0F9F1F08950F931F93BF
S11318D0CF93DF93FB01238121FD03C08FEF9FEFA3
S11318E02CC022FF16C046815781248135814217BE
S11318F0530744F4A081B1819D012F5F3F4F318391
S113190020838C93268137812F5F3F4F3783268333
S113191014C08B01EC01FB010084F185E02D0995D5
S1131920892BE1F6D80116968D919C911797019613
S113193017969C938E931697CE01DF91CF911F91AA
S11319400F910895FA01AA27283051F1203181F12D
S1131950E8946F936E7F6E5F7F4F8F4F9F4FAF4FB3
S1131960B1E03ED0B4E03CD0670F781F891F9A1FC6
S1131970A11D680F791F8A1F911DA11D6A0F711D7A
S1131980811D911DA11D20D009F468943F912AE086
S1131990269F11243019305D3193DEF6CF0108956E
S11319A0462F4770405D4193B3E00FD0C9F7F6CF9F
S11319B0462F4F70405D4A3318F0495D31FD405267
S11319C0419302D0A9F7EACFB4E0A69597958795FD
S11319D077956795BA95C9F70097610571050895DC
S11319E09B01AC010A2E0694579547953795279588
S11319F0BA95C9F7620F731F841F951FA01D089520
S1131A00052E97FB1EF400940E94170D57FD07D076
S1131A100E94690D07FC03D04EF40C94170D5095E9
S1131A204095309521953F4F4F4F5F4F08959095C6
S1131A308095709561957F4F8F4F9F4F08950E94B9
S1131A408B0DA59F900DB49F900DA49F800D911DAB
S1131A5011240895B7FF0C941F0D0E941F0D821BC3
S1131A60930B08952F923F924F925F926F927F92C1
S1131A708F929F92AF92BF92CF92DF92EF92FF929A
S1131A800F931F93CF93DF93CDB7DEB7CA1BDB0B46
S1131A900FB6F894DEBF0FBECDBF09942A883988EB
S1131AA048885F846E847D848C849B84AA84B984F2
S1131AB0C884DF80EE80FD800C811B81AA81B981FE
S1131AC0CE0FD11D0FB6F894DEBF0FBECDBFED0112
S1131AD00895A1E21A2EAA1BBB1BFD010DC0AA1F6B
S1131AE0BB1FEE1FFF1FA217B307E407F50720F083
S1131AF0A21BB30BE40BF50B661F771F881F991FFE
S1131B001A9469F760957095809590959B01AC0146
S1131B10BD01CF010895A29FB001B39FC001A39F4F
S1131B20700D811D1124911DB29F700D811D112412
S10B1B30911D0895F894FFCF04
S1131B3800009402200001000000010A0A4D4350ED
S1131B4832353135206973204E4F5420696E206335
S1131B586F6E66696775726174696F6E206D6F6404
S1131B68652061667465722072657365742021004E
S1131B780A0A4D435032353135206973204E4F548B
S1131B8820696E206C6F6F7020210052656164209B
S1131B987374617475733A2025640A004265676931
S1131BA86E3A2025640A00456E643A2025640A00CA
S1131BB84D79204944203D2025640A004D79206C44
S1131BC8656E677468203D2025640A004D79207687
S1131BD8616C303D2025640A004D792076616C31B2
S1131BE83D2025640A004D792076616C323D20251C
S1131BF8640A004D792076616C333D2025640A001F
S1131C084D792076616C343D2025640A004D792095
S1131C1876616C353D2025640A004D792076616C27
S1131C28363D2025640A004D792076616C373D20C5
S1131C3825640A00506C61792047616D65004F7016
S1131C4874696F6E7300486967682053636F7265BF
S1131C587300446966666963756C747900456173D9
S1131C6879004D656469756D00486172640052615C
S1131C786E646F6D000A52756E206D61696E2C205A
S1131C88636F6465203D2025690A00627574746F6A
S10D1C986E207072657373656400BA
S9030000FC
